{"contracts/SupplyChain.sol":{"SupplyChain":{"abi":[{"inputs":[{"internalType":"address","name":"_distributor","type":"address"},{"internalType":"address","name":"_retailer","type":"address"}],"stateMutability":"nonpayable","type":"constructor"},{"anonymous":false,"inputs":[{"indexed":false,"internalType":"uint256","name":"id","type":"uint256"},{"indexed":false,"internalType":"string","name":"name","type":"string"},{"indexed":false,"internalType":"uint256","name":"quantity","type":"uint256"},{"indexed":false,"internalType":"address","name":"owner","type":"address"}],"name":"ProductCreated","type":"event"},{"anonymous":false,"inputs":[{"indexed":false,"internalType":"uint256","name":"id","type":"uint256"},{"indexed":false,"internalType":"address","name":"from","type":"address"},{"indexed":false,"internalType":"address","name":"to","type":"address"}],"name":"ProductTransferred","type":"event"},{"anonymous":false,"inputs":[{"indexed":false,"internalType":"uint256","name":"id","type":"uint256"},{"indexed":false,"internalType":"string","name":"action","type":"string"},{"indexed":false,"internalType":"address","name":"by","type":"address"}],"name":"ProductUpdated","type":"event"},{"inputs":[{"internalType":"string","name":"_name","type":"string"},{"internalType":"uint256","name":"_quantity","type":"uint256"},{"internalType":"string","name":"_batchNumber","type":"string"}],"name":"createProduct","outputs":[],"stateMutability":"nonpayable","type":"function"},{"inputs":[],"name":"distributor","outputs":[{"internalType":"address","name":"","type":"address"}],"stateMutability":"view","type":"function"},{"inputs":[],"name":"getDistributor","outputs":[{"internalType":"address","name":"","type":"address"}],"stateMutability":"view","type":"function"},{"inputs":[],"name":"getManufacturer","outputs":[{"internalType":"address","name":"","type":"address"}],"stateMutability":"view","type":"function"},{"inputs":[{"internalType":"uint256","name":"_productId","type":"uint256"}],"name":"getProduct","outputs":[{"internalType":"uint256","name":"id","type":"uint256"},{"internalType":"string","name":"name","type":"string"},{"internalType":"uint256","name":"quantity","type":"uint256"},{"internalType":"address","name":"currentOwner","type":"address"},{"internalType":"string","name":"batchNumber","type":"string"},{"internalType":"uint256","name":"productionDate","type":"uint256"},{"internalType":"string[]","name":"history","type":"string[]"}],"stateMutability":"view","type":"function"},{"inputs":[],"name":"getProductCount","outputs":[{"internalType":"uint256","name":"","type":"uint256"}],"stateMutability":"view","type":"function"},{"inputs":[{"internalType":"uint256","name":"_productId","type":"uint256"}],"name":"getProductHistory","outputs":[{"internalType":"string[]","name":"","type":"string[]"}],"stateMutability":"view","type":"function"},{"inputs":[],"name":"getRetailer","outputs":[{"internalType":"address","name":"","type":"address"}],"stateMutability":"view","type":"function"},{"inputs":[],"name":"manufacturer","outputs":[{"internalType":"address","name":"","type":"address"}],"stateMutability":"view","type":"function"},{"inputs":[],"name":"nextProductId","outputs":[{"internalType":"uint256","name":"","type":"uint256"}],"stateMutability":"view","type":"function"},{"inputs":[{"internalType":"uint256","name":"_productId","type":"uint256"},{"internalType":"string","name":"_event","type":"string"}],"name":"recordRetailEvent","outputs":[],"stateMutability":"nonpayable","type":"function"},{"inputs":[],"name":"retailer","outputs":[{"internalType":"address","name":"","type":"address"}],"stateMutability":"view","type":"function"},{"inputs":[{"internalType":"uint256","name":"_productId","type":"uint256"},{"internalType":"address","name":"_to","type":"address"},{"internalType":"string","name":"_action","type":"string"}],"name":"transferProduct","outputs":[],"stateMutability":"nonpayable","type":"function"}],"evm":{"bytecode":{"linkReferences":{},"object":"6080604052600160035534801561001557600080fd5b50604051611ad9380380611ad983398181016040528101906100379190610163565b336000806101000a81548173ffffffffffffffffffffffffffffffffffffffff021916908373ffffffffffffffffffffffffffffffffffffffff16021790555081600160006101000a81548173ffffffffffffffffffffffffffffffffffffffff021916908373ffffffffffffffffffffffffffffffffffffffff16021790555080600260006101000a81548173ffffffffffffffffffffffffffffffffffffffff021916908373ffffffffffffffffffffffffffffffffffffffff16021790555050506101a3565b600080fd5b600073ffffffffffffffffffffffffffffffffffffffff82169050919050565b600061013082610105565b9050919050565b61014081610125565b811461014b57600080fd5b50565b60008151905061015d81610137565b92915050565b6000806040838503121561017a57610179610100565b5b60006101888582860161014e565b92505060206101998582860161014e565b9150509250929050565b611927806101b26000396000f3fe608060405234801561001057600080fd5b50600436106100cf5760003560e01c80635884965f1161008c578063b9db15b411610066578063b9db15b4146101f0578063bfe1092814610226578063f80d1ff014610244578063ff38ec0f14610262576100cf565b80635884965f146101985780636a04dddb146101b657806374754282146101d2576100cf565b806304b0cdda146100d4578063293bb2c1146100f25780634a348da91461010e5780634c1249fc1461012c5780634de91a631461014a57806357a096a114610168575b600080fd5b6100dc61027e565b6040516100e99190610cf6565b60405180910390f35b61010c60048036038101906101079190610ecd565b6102a7565b005b61011661052e565b6040516101239190610f4b565b60405180910390f35b610134610544565b6040516101419190610cf6565b60405180910390f35b61015261056a565b60405161015f9190610f4b565b60405180910390f35b610182600480360381019061017d9190610f66565b610570565b60405161018f91906110d4565b60405180910390f35b6101a061065f565b6040516101ad9190610cf6565b60405180910390f35b6101d060048036038101906101cb91906110f6565b610689565b005b6101da6107a7565b6040516101e79190610cf6565b60405180910390f35b61020a60048036038101906102059190610f66565b6107cb565b60405161021d979695949392919061119c565b60405180910390f35b61022e610a34565b60405161023b9190610cf6565b60405180910390f35b61024c610a5a565b6040516102599190610cf6565b60405180910390f35b61027c60048036038101906102779190611220565b610a84565b005b60008060009054906101000a900473ffffffffffffffffffffffffffffffffffffffff16905090565b60006004600085815260200190815260200160002090508060030160009054906101000a900473ffffffffffffffffffffffffffffffffffffffff1673ffffffffffffffffffffffffffffffffffffffff163373ffffffffffffffffffffffffffffffffffffffff1614610350576040517f08c379a0000000000000000000000000000000000000000000000000000000008152600401610347906112f7565b60405180910390fd5b600160009054906101000a900473ffffffffffffffffffffffffffffffffffffffff1673ffffffffffffffffffffffffffffffffffffffff168373ffffffffffffffffffffffffffffffffffffffff1614806103f95750600260009054906101000a900473ffffffffffffffffffffffffffffffffffffffff1673ffffffffffffffffffffffffffffffffffffffff168373ffffffffffffffffffffffffffffffffffffffff16145b610438576040517f08c379a000000000000000000000000000000000000000000000000000000000815260040161042f90611363565b60405180910390fd5b828160030160006101000a81548173ffffffffffffffffffffffffffffffffffffffff021916908373ffffffffffffffffffffffffffffffffffffffff16021790555080600601829080600181540180825580915050600190039060005260206000200160009091909190915090816104b1919061158f565b507fcef86d37ba3dc1d682967cde44d8050488734bf53166725b220b4d2e515e9e938433856040516104e593929190611661565b60405180910390a17f6599e0074698ba3478733fbb2dac5ef719075c18d140e6c6ad768d8f970b22c584833360405161052093929190611698565b60405180910390a150505050565b6000600160035461053f9190611705565b905090565b600260009054906101000a900473ffffffffffffffffffffffffffffffffffffffff1681565b60035481565b606060046000838152602001908152602001600020600601805480602002602001604051908101604052809291908181526020016000905b828210156106545783829060005260206000200180546105c7906113b2565b80601f01602080910402602001604051908101604052809291908181526020018280546105f3906113b2565b80156106405780601f1061061557610100808354040283529160200191610640565b820191906000526020600020905b81548152906001019060200180831161062357829003601f168201915b5050505050815260200190600101906105a8565b505050509050919050565b6000600160009054906101000a900473ffffffffffffffffffffffffffffffffffffffff16905090565b600260009054906101000a900473ffffffffffffffffffffffffffffffffffffffff1673ffffffffffffffffffffffffffffffffffffffff163373ffffffffffffffffffffffffffffffffffffffff1614610719576040517f08c379a0000000000000000000000000000000000000000000000000000000008152600401610710906117ab565b60405180910390fd5b60006004600084815260200190815260200160002090508060060182908060018154018082558091505060019003906000526020600020016000909190919091509081610766919061158f565b507f6599e0074698ba3478733fbb2dac5ef719075c18d140e6c6ad768d8f970b22c583833360405161079a93929190611698565b60405180910390a1505050565b60008054906101000a900473ffffffffffffffffffffffffffffffffffffffff1681565b600060606000806060600060606000600460008a8152602001908152602001600020905080600001548160010182600201548360030160009054906101000a900473ffffffffffffffffffffffffffffffffffffffff168460040185600501548660060185805461083b906113b2565b80601f0160208091040260200160405190810160405280929190818152602001828054610867906113b2565b80156108b45780601f10610889576101008083540402835291602001916108b4565b820191906000526020600020905b81548152906001019060200180831161089757829003601f168201915b505050505095508280546108c7906113b2565b80601f01602080910402602001604051908101604052809291908181526020018280546108f3906113b2565b80156109405780601f1061091557610100808354040283529160200191610940565b820191906000526020600020905b81548152906001019060200180831161092357829003601f168201915b5050505050925080805480602002602001604051908101604052809291908181526020016000905b82821015610a14578382906000526020600020018054610987906113b2565b80601f01602080910402602001604051908101604052809291908181526020018280546109b3906113b2565b8015610a005780601f106109d557610100808354040283529160200191610a00565b820191906000526020600020905b8154815290600101906020018083116109e357829003601f168201915b505050505081526020019060010190610968565b505050509050975097509750975097509750975050919395979092949650565b600160009054906101000a900473ffffffffffffffffffffffffffffffffffffffff1681565b6000600260009054906101000a900473ffffffffffffffffffffffffffffffffffffffff16905090565b60008054906101000a900473ffffffffffffffffffffffffffffffffffffffff1673ffffffffffffffffffffffffffffffffffffffff163373ffffffffffffffffffffffffffffffffffffffff1614610b12576040517f08c379a0000000000000000000000000000000000000000000000000000000008152600401610b099061183d565b60405180910390fd5b60006004600060035481526020019081526020016000209050600354816000018190555083816001019081610b47919061158f565b5082816002018190555060008054906101000a900473ffffffffffffffffffffffffffffffffffffffff168160030160006101000a81548173ffffffffffffffffffffffffffffffffffffffff021916908373ffffffffffffffffffffffffffffffffffffffff16021790555081816004019081610bc5919061158f565b504281600501819055508060060180600181540180825580915050600190039060005260206000200160006040518060400160405280601881526020017f50726f6475636564206279206d616e756661637475726572000000000000000081525090919091509081610c37919061158f565b507f2e87df3c8f53fb06266ed52023929f5fab9f24130224ef6538b665d9cac82530600354858560008054906101000a900473ffffffffffffffffffffffffffffffffffffffff16604051610c8f949392919061185d565b60405180910390a160036000815480929190610caa906118a9565b919050555050505050565b600073ffffffffffffffffffffffffffffffffffffffff82169050919050565b6000610ce082610cb5565b9050919050565b610cf081610cd5565b82525050565b6000602082019050610d0b6000830184610ce7565b92915050565b6000604051905090565b600080fd5b600080fd5b6000819050919050565b610d3881610d25565b8114610d4357600080fd5b50565b600081359050610d5581610d2f565b92915050565b610d6481610cd5565b8114610d6f57600080fd5b50565b600081359050610d8181610d5b565b92915050565b600080fd5b600080fd5b6000601f19601f8301169050919050565b7f4e487b7100000000000000000000000000000000000000000000000000000000600052604160045260246000fd5b610dda82610d91565b810181811067ffffffffffffffff82111715610df957610df8610da2565b5b80604052505050565b6000610e0c610d11565b9050610e188282610dd1565b919050565b600067ffffffffffffffff821115610e3857610e37610da2565b5b610e4182610d91565b9050602081019050919050565b82818337600083830152505050565b6000610e70610e6b84610e1d565b610e02565b905082815260208101848484011115610e8c57610e8b610d8c565b5b610e97848285610e4e565b509392505050565b600082601f830112610eb457610eb3610d87565b5b8135610ec4848260208601610e5d565b91505092915050565b600080600060608486031215610ee657610ee5610d1b565b5b6000610ef486828701610d46565b9350506020610f0586828701610d72565b925050604084013567ffffffffffffffff811115610f2657610f25610d20565b5b610f3286828701610e9f565b9150509250925092565b610f4581610d25565b82525050565b6000602082019050610f606000830184610f3c565b92915050565b600060208284031215610f7c57610f7b610d1b565b5b6000610f8a84828501610d46565b91505092915050565b600081519050919050565b600082825260208201905092915050565b6000819050602082019050919050565b600081519050919050565b600082825260208201905092915050565b60005b83811015610ff9578082015181840152602081019050610fde565b60008484015250505050565b600061101082610fbf565b61101a8185610fca565b935061102a818560208601610fdb565b61103381610d91565b840191505092915050565b600061104a8383611005565b905092915050565b6000602082019050919050565b600061106a82610f93565b6110748185610f9e565b93508360208202850161108685610faf565b8060005b858110156110c257848403895281516110a3858261103e565b94506110ae83611052565b925060208a0199505060018101905061108a565b50829750879550505050505092915050565b600060208201905081810360008301526110ee818461105f565b905092915050565b6000806040838503121561110d5761110c610d1b565b5b600061111b85828601610d46565b925050602083013567ffffffffffffffff81111561113c5761113b610d20565b5b61114885828601610e9f565b9150509250929050565b600082825260208201905092915050565b600061116e82610fbf565b6111788185611152565b9350611188818560208601610fdb565b61119181610d91565b840191505092915050565b600060e0820190506111b1600083018a610f3c565b81810360208301526111c38189611163565b90506111d26040830188610f3c565b6111df6060830187610ce7565b81810360808301526111f18186611163565b905061120060a0830185610f3c565b81810360c0830152611212818461105f565b905098975050505050505050565b60008060006060848603121561123957611238610d1b565b5b600084013567ffffffffffffffff81111561125757611256610d20565b5b61126386828701610e9f565b935050602061127486828701610d46565b925050604084013567ffffffffffffffff81111561129557611294610d20565b5b6112a186828701610e9f565b9150509250925092565b7f4f6e6c792063757272656e74206f776e65722063616e207472616e7366657200600082015250565b60006112e1601f83611152565b91506112ec826112ab565b602082019050919050565b60006020820190508181036000830152611310816112d4565b9050919050565b7f496e76616c696420726563697069656e74000000000000000000000000000000600082015250565b600061134d601183611152565b915061135882611317565b602082019050919050565b6000602082019050818103600083015261137c81611340565b9050919050565b7f4e487b7100000000000000000000000000000000000000000000000000000000600052602260045260246000fd5b600060028204905060018216806113ca57607f821691505b6020821081036113dd576113dc611383565b5b50919050565b60008190508160005260206000209050919050565b60006020601f8301049050919050565b600082821b905092915050565b6000600883026114457fffffffffffffffffffffffffffffffffffffffffffffffffffffffffffffffff82611408565b61144f8683611408565b95508019841693508086168417925050509392505050565b6000819050919050565b600061148c61148761148284610d25565b611467565b610d25565b9050919050565b6000819050919050565b6114a683611471565b6114ba6114b282611493565b848454611415565b825550505050565b600090565b6114cf6114c2565b6114da81848461149d565b505050565b5b818110156114fe576114f36000826114c7565b6001810190506114e0565b5050565b601f82111561154357611514816113e3565b61151d846113f8565b8101602085101561152c578190505b611540611538856113f8565b8301826114df565b50505b505050565b600082821c905092915050565b600061156660001984600802611548565b1980831691505092915050565b600061157f8383611555565b9150826002028217905092915050565b61159882610fbf565b67ffffffffffffffff8111156115b1576115b0610da2565b5b6115bb82546113b2565b6115c6828285611502565b600060209050601f8311600181146115f957600084156115e7578287015190505b6115f18582611573565b865550611659565b601f198416611607866113e3565b60005b8281101561162f5784890151825560018201915060208501945060208101905061160a565b8683101561164c5784890151611648601f891682611555565b8355505b6001600288020188555050505b505050505050565b60006060820190506116766000830186610f3c565b6116836020830185610ce7565b6116906040830184610ce7565b949350505050565b60006060820190506116ad6000830186610f3c565b81810360208301526116bf8185611163565b90506116ce6040830184610ce7565b949350505050565b7f4e487b7100000000000000000000000000000000000000000000000000000000600052601160045260246000fd5b600061171082610d25565b915061171b83610d25565b9250828203905081811115611733576117326116d6565b5b92915050565b7f4f6e6c792072657461696c65722063616e207265636f72642072657461696c2060008201527f6576656e74730000000000000000000000000000000000000000000000000000602082015250565b6000611795602683611152565b91506117a082611739565b604082019050919050565b600060208201905081810360008301526117c481611788565b9050919050565b7f4f6e6c79206d616e7566616374757265722063616e206372656174652070726f60008201527f6475637473000000000000000000000000000000000000000000000000000000602082015250565b6000611827602583611152565b9150611832826117cb565b604082019050919050565b600060208201905081810360008301526118568161181a565b9050919050565b60006080820190506118726000830187610f3c565b81810360208301526118848186611163565b90506118936040830185610f3c565b6118a06060830184610ce7565b95945050505050565b60006118b482610d25565b91507fffffffffffffffffffffffffffffffffffffffffffffffffffffffffffffffff82036118e6576118e56116d6565b5b60018201905091905056fea2646970667358221220d7afd2f7ba48f33414f499cd41addae5aec8f169c6ac138725186c4318753dc064736f6c634300081c0033","opcodes":"PUSH1 0x80 PUSH1 0x40 MSTORE PUSH1 0x1 PUSH1 0x3 SSTORE CALLVALUE DUP1 ISZERO PUSH2 0x15 JUMPI PUSH1 0x0 DUP1 REVERT JUMPDEST POP PUSH1 0x40 MLOAD PUSH2 0x1AD9 CODESIZE SUB DUP1 PUSH2 0x1AD9 DUP4 CODECOPY DUP2 DUP2 ADD PUSH1 0x40 MSTORE DUP2 ADD SWAP1 PUSH2 0x37 SWAP2 SWAP1 PUSH2 0x163 JUMP JUMPDEST CALLER PUSH1 0x0 DUP1 PUSH2 0x100 EXP DUP2 SLOAD DUP2 PUSH20 0xFFFFFFFFFFFFFFFFFFFFFFFFFFFFFFFFFFFFFFFF MUL NOT AND SWAP1 DUP4 PUSH20 0xFFFFFFFFFFFFFFFFFFFFFFFFFFFFFFFFFFFFFFFF AND MUL OR SWAP1 SSTORE POP DUP2 PUSH1 0x1 PUSH1 0x0 PUSH2 0x100 EXP DUP2 SLOAD DUP2 PUSH20 0xFFFFFFFFFFFFFFFFFFFFFFFFFFFFFFFFFFFFFFFF MUL NOT AND SWAP1 DUP4 PUSH20 0xFFFFFFFFFFFFFFFFFFFFFFFFFFFFFFFFFFFFFFFF AND MUL OR SWAP1 SSTORE POP DUP1 PUSH1 0x2 PUSH1 0x0 PUSH2 0x100 EXP DUP2 SLOAD DUP2 PUSH20 0xFFFFFFFFFFFFFFFFFFFFFFFFFFFFFFFFFFFFFFFF MUL NOT AND SWAP1 DUP4 PUSH20 0xFFFFFFFFFFFFFFFFFFFFFFFFFFFFFFFFFFFFFFFF AND MUL OR SWAP1 SSTORE POP POP POP PUSH2 0x1A3 JUMP JUMPDEST PUSH1 0x0 DUP1 REVERT JUMPDEST PUSH1 0x0 PUSH20 0xFFFFFFFFFFFFFFFFFFFFFFFFFFFFFFFFFFFFFFFF DUP3 AND SWAP1 POP SWAP2 SWAP1 POP JUMP JUMPDEST PUSH1 0x0 PUSH2 0x130 DUP3 PUSH2 0x105 JUMP JUMPDEST SWAP1 POP SWAP2 SWAP1 POP JUMP JUMPDEST PUSH2 0x140 DUP2 PUSH2 0x125 JUMP JUMPDEST DUP2 EQ PUSH2 0x14B JUMPI PUSH1 0x0 DUP1 REVERT JUMPDEST POP JUMP JUMPDEST PUSH1 0x0 DUP2 MLOAD SWAP1 POP PUSH2 0x15D DUP2 PUSH2 0x137 JUMP JUMPDEST SWAP3 SWAP2 POP POP JUMP JUMPDEST PUSH1 0x0 DUP1 PUSH1 0x40 DUP4 DUP6 SUB SLT ISZERO PUSH2 0x17A JUMPI PUSH2 0x179 PUSH2 0x100 JUMP JUMPDEST JUMPDEST PUSH1 0x0 PUSH2 0x188 DUP6 DUP3 DUP7 ADD PUSH2 0x14E JUMP JUMPDEST SWAP3 POP POP PUSH1 0x20 PUSH2 0x199 DUP6 DUP3 DUP7 ADD PUSH2 0x14E JUMP JUMPDEST SWAP2 POP POP SWAP3 POP SWAP3 SWAP1 POP JUMP JUMPDEST PUSH2 0x1927 DUP1 PUSH2 0x1B2 PUSH1 0x0 CODECOPY PUSH1 0x0 RETURN INVALID PUSH1 0x80 PUSH1 0x40 MSTORE CALLVALUE DUP1 ISZERO PUSH2 0x10 JUMPI PUSH1 0x0 DUP1 REVERT JUMPDEST POP PUSH1 0x4 CALLDATASIZE LT PUSH2 0xCF JUMPI PUSH1 0x0 CALLDATALOAD PUSH1 0xE0 SHR DUP1 PUSH4 0x5884965F GT PUSH2 0x8C JUMPI DUP1 PUSH4 0xB9DB15B4 GT PUSH2 0x66 JUMPI DUP1 PUSH4 0xB9DB15B4 EQ PUSH2 0x1F0 JUMPI DUP1 PUSH4 0xBFE10928 EQ PUSH2 0x226 JUMPI DUP1 PUSH4 0xF80D1FF0 EQ PUSH2 0x244 JUMPI DUP1 PUSH4 0xFF38EC0F EQ PUSH2 0x262 JUMPI PUSH2 0xCF JUMP JUMPDEST DUP1 PUSH4 0x5884965F EQ PUSH2 0x198 JUMPI DUP1 PUSH4 0x6A04DDDB EQ PUSH2 0x1B6 JUMPI DUP1 PUSH4 0x74754282 EQ PUSH2 0x1D2 JUMPI PUSH2 0xCF JUMP JUMPDEST DUP1 PUSH4 0x4B0CDDA EQ PUSH2 0xD4 JUMPI DUP1 PUSH4 0x293BB2C1 EQ PUSH2 0xF2 JUMPI DUP1 PUSH4 0x4A348DA9 EQ PUSH2 0x10E JUMPI DUP1 PUSH4 0x4C1249FC EQ PUSH2 0x12C JUMPI DUP1 PUSH4 0x4DE91A63 EQ PUSH2 0x14A JUMPI DUP1 PUSH4 0x57A096A1 EQ PUSH2 0x168 JUMPI JUMPDEST PUSH1 0x0 DUP1 REVERT JUMPDEST PUSH2 0xDC PUSH2 0x27E JUMP JUMPDEST PUSH1 0x40 MLOAD PUSH2 0xE9 SWAP2 SWAP1 PUSH2 0xCF6 JUMP JUMPDEST PUSH1 0x40 MLOAD DUP1 SWAP2 SUB SWAP1 RETURN JUMPDEST PUSH2 0x10C PUSH1 0x4 DUP1 CALLDATASIZE SUB DUP2 ADD SWAP1 PUSH2 0x107 SWAP2 SWAP1 PUSH2 0xECD JUMP JUMPDEST PUSH2 0x2A7 JUMP JUMPDEST STOP JUMPDEST PUSH2 0x116 PUSH2 0x52E JUMP JUMPDEST PUSH1 0x40 MLOAD PUSH2 0x123 SWAP2 SWAP1 PUSH2 0xF4B JUMP JUMPDEST PUSH1 0x40 MLOAD DUP1 SWAP2 SUB SWAP1 RETURN JUMPDEST PUSH2 0x134 PUSH2 0x544 JUMP JUMPDEST PUSH1 0x40 MLOAD PUSH2 0x141 SWAP2 SWAP1 PUSH2 0xCF6 JUMP JUMPDEST PUSH1 0x40 MLOAD DUP1 SWAP2 SUB SWAP1 RETURN JUMPDEST PUSH2 0x152 PUSH2 0x56A JUMP JUMPDEST PUSH1 0x40 MLOAD PUSH2 0x15F SWAP2 SWAP1 PUSH2 0xF4B JUMP JUMPDEST PUSH1 0x40 MLOAD DUP1 SWAP2 SUB SWAP1 RETURN JUMPDEST PUSH2 0x182 PUSH1 0x4 DUP1 CALLDATASIZE SUB DUP2 ADD SWAP1 PUSH2 0x17D SWAP2 SWAP1 PUSH2 0xF66 JUMP JUMPDEST PUSH2 0x570 JUMP JUMPDEST PUSH1 0x40 MLOAD PUSH2 0x18F SWAP2 SWAP1 PUSH2 0x10D4 JUMP JUMPDEST PUSH1 0x40 MLOAD DUP1 SWAP2 SUB SWAP1 RETURN JUMPDEST PUSH2 0x1A0 PUSH2 0x65F JUMP JUMPDEST PUSH1 0x40 MLOAD PUSH2 0x1AD SWAP2 SWAP1 PUSH2 0xCF6 JUMP JUMPDEST PUSH1 0x40 MLOAD DUP1 SWAP2 SUB SWAP1 RETURN JUMPDEST PUSH2 0x1D0 PUSH1 0x4 DUP1 CALLDATASIZE SUB DUP2 ADD SWAP1 PUSH2 0x1CB SWAP2 SWAP1 PUSH2 0x10F6 JUMP JUMPDEST PUSH2 0x689 JUMP JUMPDEST STOP JUMPDEST PUSH2 0x1DA PUSH2 0x7A7 JUMP JUMPDEST PUSH1 0x40 MLOAD PUSH2 0x1E7 SWAP2 SWAP1 PUSH2 0xCF6 JUMP JUMPDEST PUSH1 0x40 MLOAD DUP1 SWAP2 SUB SWAP1 RETURN JUMPDEST PUSH2 0x20A PUSH1 0x4 DUP1 CALLDATASIZE SUB DUP2 ADD SWAP1 PUSH2 0x205 SWAP2 SWAP1 PUSH2 0xF66 JUMP JUMPDEST PUSH2 0x7CB JUMP JUMPDEST PUSH1 0x40 MLOAD PUSH2 0x21D SWAP8 SWAP7 SWAP6 SWAP5 SWAP4 SWAP3 SWAP2 SWAP1 PUSH2 0x119C JUMP JUMPDEST PUSH1 0x40 MLOAD DUP1 SWAP2 SUB SWAP1 RETURN JUMPDEST PUSH2 0x22E PUSH2 0xA34 JUMP JUMPDEST PUSH1 0x40 MLOAD PUSH2 0x23B SWAP2 SWAP1 PUSH2 0xCF6 JUMP JUMPDEST PUSH1 0x40 MLOAD DUP1 SWAP2 SUB SWAP1 RETURN JUMPDEST PUSH2 0x24C PUSH2 0xA5A JUMP JUMPDEST PUSH1 0x40 MLOAD PUSH2 0x259 SWAP2 SWAP1 PUSH2 0xCF6 JUMP JUMPDEST PUSH1 0x40 MLOAD DUP1 SWAP2 SUB SWAP1 RETURN JUMPDEST PUSH2 0x27C PUSH1 0x4 DUP1 CALLDATASIZE SUB DUP2 ADD SWAP1 PUSH2 0x277 SWAP2 SWAP1 PUSH2 0x1220 JUMP JUMPDEST PUSH2 0xA84 JUMP JUMPDEST STOP JUMPDEST PUSH1 0x0 DUP1 PUSH1 0x0 SWAP1 SLOAD SWAP1 PUSH2 0x100 EXP SWAP1 DIV PUSH20 0xFFFFFFFFFFFFFFFFFFFFFFFFFFFFFFFFFFFFFFFF AND SWAP1 POP SWAP1 JUMP JUMPDEST PUSH1 0x0 PUSH1 0x4 PUSH1 0x0 DUP6 DUP2 MSTORE PUSH1 0x20 ADD SWAP1 DUP2 MSTORE PUSH1 0x20 ADD PUSH1 0x0 KECCAK256 SWAP1 POP DUP1 PUSH1 0x3 ADD PUSH1 0x0 SWAP1 SLOAD SWAP1 PUSH2 0x100 EXP SWAP1 DIV PUSH20 0xFFFFFFFFFFFFFFFFFFFFFFFFFFFFFFFFFFFFFFFF AND PUSH20 0xFFFFFFFFFFFFFFFFFFFFFFFFFFFFFFFFFFFFFFFF AND CALLER PUSH20 0xFFFFFFFFFFFFFFFFFFFFFFFFFFFFFFFFFFFFFFFF AND EQ PUSH2 0x350 JUMPI PUSH1 0x40 MLOAD PUSH32 0x8C379A000000000000000000000000000000000000000000000000000000000 DUP2 MSTORE PUSH1 0x4 ADD PUSH2 0x347 SWAP1 PUSH2 0x12F7 JUMP JUMPDEST PUSH1 0x40 MLOAD DUP1 SWAP2 SUB SWAP1 REVERT JUMPDEST PUSH1 0x1 PUSH1 0x0 SWAP1 SLOAD SWAP1 PUSH2 0x100 EXP SWAP1 DIV PUSH20 0xFFFFFFFFFFFFFFFFFFFFFFFFFFFFFFFFFFFFFFFF AND PUSH20 0xFFFFFFFFFFFFFFFFFFFFFFFFFFFFFFFFFFFFFFFF AND DUP4 PUSH20 0xFFFFFFFFFFFFFFFFFFFFFFFFFFFFFFFFFFFFFFFF AND EQ DUP1 PUSH2 0x3F9 JUMPI POP PUSH1 0x2 PUSH1 0x0 SWAP1 SLOAD SWAP1 PUSH2 0x100 EXP SWAP1 DIV PUSH20 0xFFFFFFFFFFFFFFFFFFFFFFFFFFFFFFFFFFFFFFFF AND PUSH20 0xFFFFFFFFFFFFFFFFFFFFFFFFFFFFFFFFFFFFFFFF AND DUP4 PUSH20 0xFFFFFFFFFFFFFFFFFFFFFFFFFFFFFFFFFFFFFFFF AND EQ JUMPDEST PUSH2 0x438 JUMPI PUSH1 0x40 MLOAD PUSH32 0x8C379A000000000000000000000000000000000000000000000000000000000 DUP2 MSTORE PUSH1 0x4 ADD PUSH2 0x42F SWAP1 PUSH2 0x1363 JUMP JUMPDEST PUSH1 0x40 MLOAD DUP1 SWAP2 SUB SWAP1 REVERT JUMPDEST DUP3 DUP2 PUSH1 0x3 ADD PUSH1 0x0 PUSH2 0x100 EXP DUP2 SLOAD DUP2 PUSH20 0xFFFFFFFFFFFFFFFFFFFFFFFFFFFFFFFFFFFFFFFF MUL NOT AND SWAP1 DUP4 PUSH20 0xFFFFFFFFFFFFFFFFFFFFFFFFFFFFFFFFFFFFFFFF AND MUL OR SWAP1 SSTORE POP DUP1 PUSH1 0x6 ADD DUP3 SWAP1 DUP1 PUSH1 0x1 DUP2 SLOAD ADD DUP1 DUP3 SSTORE DUP1 SWAP2 POP POP PUSH1 0x1 SWAP1 SUB SWAP1 PUSH1 0x0 MSTORE PUSH1 0x20 PUSH1 0x0 KECCAK256 ADD PUSH1 0x0 SWAP1 SWAP2 SWAP1 SWAP2 SWAP1 SWAP2 POP SWAP1 DUP2 PUSH2 0x4B1 SWAP2 SWAP1 PUSH2 0x158F JUMP JUMPDEST POP PUSH32 0xCEF86D37BA3DC1D682967CDE44D8050488734BF53166725B220B4D2E515E9E93 DUP5 CALLER DUP6 PUSH1 0x40 MLOAD PUSH2 0x4E5 SWAP4 SWAP3 SWAP2 SWAP1 PUSH2 0x1661 JUMP JUMPDEST PUSH1 0x40 MLOAD DUP1 SWAP2 SUB SWAP1 LOG1 PUSH32 0x6599E0074698BA3478733FBB2DAC5EF719075C18D140E6C6AD768D8F970B22C5 DUP5 DUP4 CALLER PUSH1 0x40 MLOAD PUSH2 0x520 SWAP4 SWAP3 SWAP2 SWAP1 PUSH2 0x1698 JUMP JUMPDEST PUSH1 0x40 MLOAD DUP1 SWAP2 SUB SWAP1 LOG1 POP POP POP POP JUMP JUMPDEST PUSH1 0x0 PUSH1 0x1 PUSH1 0x3 SLOAD PUSH2 0x53F SWAP2 SWAP1 PUSH2 0x1705 JUMP JUMPDEST SWAP1 POP SWAP1 JUMP JUMPDEST PUSH1 0x2 PUSH1 0x0 SWAP1 SLOAD SWAP1 PUSH2 0x100 EXP SWAP1 DIV PUSH20 0xFFFFFFFFFFFFFFFFFFFFFFFFFFFFFFFFFFFFFFFF AND DUP2 JUMP JUMPDEST PUSH1 0x3 SLOAD DUP2 JUMP JUMPDEST PUSH1 0x60 PUSH1 0x4 PUSH1 0x0 DUP4 DUP2 MSTORE PUSH1 0x20 ADD SWAP1 DUP2 MSTORE PUSH1 0x20 ADD PUSH1 0x0 KECCAK256 PUSH1 0x6 ADD DUP1 SLOAD DUP1 PUSH1 0x20 MUL PUSH1 0x20 ADD PUSH1 0x40 MLOAD SWAP1 DUP2 ADD PUSH1 0x40 MSTORE DUP1 SWAP3 SWAP2 SWAP1 DUP2 DUP2 MSTORE PUSH1 0x20 ADD PUSH1 0x0 SWAP1 JUMPDEST DUP3 DUP3 LT ISZERO PUSH2 0x654 JUMPI DUP4 DUP3 SWAP1 PUSH1 0x0 MSTORE PUSH1 0x20 PUSH1 0x0 KECCAK256 ADD DUP1 SLOAD PUSH2 0x5C7 SWAP1 PUSH2 0x13B2 JUMP JUMPDEST DUP1 PUSH1 0x1F ADD PUSH1 0x20 DUP1 SWAP2 DIV MUL PUSH1 0x20 ADD PUSH1 0x40 MLOAD SWAP1 DUP2 ADD PUSH1 0x40 MSTORE DUP1 SWAP3 SWAP2 SWAP1 DUP2 DUP2 MSTORE PUSH1 0x20 ADD DUP3 DUP1 SLOAD PUSH2 0x5F3 SWAP1 PUSH2 0x13B2 JUMP JUMPDEST DUP1 ISZERO PUSH2 0x640 JUMPI DUP1 PUSH1 0x1F LT PUSH2 0x615 JUMPI PUSH2 0x100 DUP1 DUP4 SLOAD DIV MUL DUP4 MSTORE SWAP2 PUSH1 0x20 ADD SWAP2 PUSH2 0x640 JUMP JUMPDEST DUP3 ADD SWAP2 SWAP1 PUSH1 0x0 MSTORE PUSH1 0x20 PUSH1 0x0 KECCAK256 SWAP1 JUMPDEST DUP2 SLOAD DUP2 MSTORE SWAP1 PUSH1 0x1 ADD SWAP1 PUSH1 0x20 ADD DUP1 DUP4 GT PUSH2 0x623 JUMPI DUP3 SWAP1 SUB PUSH1 0x1F AND DUP3 ADD SWAP2 JUMPDEST POP POP POP POP POP DUP2 MSTORE PUSH1 0x20 ADD SWAP1 PUSH1 0x1 ADD SWAP1 PUSH2 0x5A8 JUMP JUMPDEST POP POP POP POP SWAP1 POP SWAP2 SWAP1 POP JUMP JUMPDEST PUSH1 0x0 PUSH1 0x1 PUSH1 0x0 SWAP1 SLOAD SWAP1 PUSH2 0x100 EXP SWAP1 DIV PUSH20 0xFFFFFFFFFFFFFFFFFFFFFFFFFFFFFFFFFFFFFFFF AND SWAP1 POP SWAP1 JUMP JUMPDEST PUSH1 0x2 PUSH1 0x0 SWAP1 SLOAD SWAP1 PUSH2 0x100 EXP SWAP1 DIV PUSH20 0xFFFFFFFFFFFFFFFFFFFFFFFFFFFFFFFFFFFFFFFF AND PUSH20 0xFFFFFFFFFFFFFFFFFFFFFFFFFFFFFFFFFFFFFFFF AND CALLER PUSH20 0xFFFFFFFFFFFFFFFFFFFFFFFFFFFFFFFFFFFFFFFF AND EQ PUSH2 0x719 JUMPI PUSH1 0x40 MLOAD PUSH32 0x8C379A000000000000000000000000000000000000000000000000000000000 DUP2 MSTORE PUSH1 0x4 ADD PUSH2 0x710 SWAP1 PUSH2 0x17AB JUMP JUMPDEST PUSH1 0x40 MLOAD DUP1 SWAP2 SUB SWAP1 REVERT JUMPDEST PUSH1 0x0 PUSH1 0x4 PUSH1 0x0 DUP5 DUP2 MSTORE PUSH1 0x20 ADD SWAP1 DUP2 MSTORE PUSH1 0x20 ADD PUSH1 0x0 KECCAK256 SWAP1 POP DUP1 PUSH1 0x6 ADD DUP3 SWAP1 DUP1 PUSH1 0x1 DUP2 SLOAD ADD DUP1 DUP3 SSTORE DUP1 SWAP2 POP POP PUSH1 0x1 SWAP1 SUB SWAP1 PUSH1 0x0 MSTORE PUSH1 0x20 PUSH1 0x0 KECCAK256 ADD PUSH1 0x0 SWAP1 SWAP2 SWAP1 SWAP2 SWAP1 SWAP2 POP SWAP1 DUP2 PUSH2 0x766 SWAP2 SWAP1 PUSH2 0x158F JUMP JUMPDEST POP PUSH32 0x6599E0074698BA3478733FBB2DAC5EF719075C18D140E6C6AD768D8F970B22C5 DUP4 DUP4 CALLER PUSH1 0x40 MLOAD PUSH2 0x79A SWAP4 SWAP3 SWAP2 SWAP1 PUSH2 0x1698 JUMP JUMPDEST PUSH1 0x40 MLOAD DUP1 SWAP2 SUB SWAP1 LOG1 POP POP POP JUMP JUMPDEST PUSH1 0x0 DUP1 SLOAD SWAP1 PUSH2 0x100 EXP SWAP1 DIV PUSH20 0xFFFFFFFFFFFFFFFFFFFFFFFFFFFFFFFFFFFFFFFF AND DUP2 JUMP JUMPDEST PUSH1 0x0 PUSH1 0x60 PUSH1 0x0 DUP1 PUSH1 0x60 PUSH1 0x0 PUSH1 0x60 PUSH1 0x0 PUSH1 0x4 PUSH1 0x0 DUP11 DUP2 MSTORE PUSH1 0x20 ADD SWAP1 DUP2 MSTORE PUSH1 0x20 ADD PUSH1 0x0 KECCAK256 SWAP1 POP DUP1 PUSH1 0x0 ADD SLOAD DUP2 PUSH1 0x1 ADD DUP3 PUSH1 0x2 ADD SLOAD DUP4 PUSH1 0x3 ADD PUSH1 0x0 SWAP1 SLOAD SWAP1 PUSH2 0x100 EXP SWAP1 DIV PUSH20 0xFFFFFFFFFFFFFFFFFFFFFFFFFFFFFFFFFFFFFFFF AND DUP5 PUSH1 0x4 ADD DUP6 PUSH1 0x5 ADD SLOAD DUP7 PUSH1 0x6 ADD DUP6 DUP1 SLOAD PUSH2 0x83B SWAP1 PUSH2 0x13B2 JUMP JUMPDEST DUP1 PUSH1 0x1F ADD PUSH1 0x20 DUP1 SWAP2 DIV MUL PUSH1 0x20 ADD PUSH1 0x40 MLOAD SWAP1 DUP2 ADD PUSH1 0x40 MSTORE DUP1 SWAP3 SWAP2 SWAP1 DUP2 DUP2 MSTORE PUSH1 0x20 ADD DUP3 DUP1 SLOAD PUSH2 0x867 SWAP1 PUSH2 0x13B2 JUMP JUMPDEST DUP1 ISZERO PUSH2 0x8B4 JUMPI DUP1 PUSH1 0x1F LT PUSH2 0x889 JUMPI PUSH2 0x100 DUP1 DUP4 SLOAD DIV MUL DUP4 MSTORE SWAP2 PUSH1 0x20 ADD SWAP2 PUSH2 0x8B4 JUMP JUMPDEST DUP3 ADD SWAP2 SWAP1 PUSH1 0x0 MSTORE PUSH1 0x20 PUSH1 0x0 KECCAK256 SWAP1 JUMPDEST DUP2 SLOAD DUP2 MSTORE SWAP1 PUSH1 0x1 ADD SWAP1 PUSH1 0x20 ADD DUP1 DUP4 GT PUSH2 0x897 JUMPI DUP3 SWAP1 SUB PUSH1 0x1F AND DUP3 ADD SWAP2 JUMPDEST POP POP POP POP POP SWAP6 POP DUP3 DUP1 SLOAD PUSH2 0x8C7 SWAP1 PUSH2 0x13B2 JUMP JUMPDEST DUP1 PUSH1 0x1F ADD PUSH1 0x20 DUP1 SWAP2 DIV MUL PUSH1 0x20 ADD PUSH1 0x40 MLOAD SWAP1 DUP2 ADD PUSH1 0x40 MSTORE DUP1 SWAP3 SWAP2 SWAP1 DUP2 DUP2 MSTORE PUSH1 0x20 ADD DUP3 DUP1 SLOAD PUSH2 0x8F3 SWAP1 PUSH2 0x13B2 JUMP JUMPDEST DUP1 ISZERO PUSH2 0x940 JUMPI DUP1 PUSH1 0x1F LT PUSH2 0x915 JUMPI PUSH2 0x100 DUP1 DUP4 SLOAD DIV MUL DUP4 MSTORE SWAP2 PUSH1 0x20 ADD SWAP2 PUSH2 0x940 JUMP JUMPDEST DUP3 ADD SWAP2 SWAP1 PUSH1 0x0 MSTORE PUSH1 0x20 PUSH1 0x0 KECCAK256 SWAP1 JUMPDEST DUP2 SLOAD DUP2 MSTORE SWAP1 PUSH1 0x1 ADD SWAP1 PUSH1 0x20 ADD DUP1 DUP4 GT PUSH2 0x923 JUMPI DUP3 SWAP1 SUB PUSH1 0x1F AND DUP3 ADD SWAP2 JUMPDEST POP POP POP POP POP SWAP3 POP DUP1 DUP1 SLOAD DUP1 PUSH1 0x20 MUL PUSH1 0x20 ADD PUSH1 0x40 MLOAD SWAP1 DUP2 ADD PUSH1 0x40 MSTORE DUP1 SWAP3 SWAP2 SWAP1 DUP2 DUP2 MSTORE PUSH1 0x20 ADD PUSH1 0x0 SWAP1 JUMPDEST DUP3 DUP3 LT ISZERO PUSH2 0xA14 JUMPI DUP4 DUP3 SWAP1 PUSH1 0x0 MSTORE PUSH1 0x20 PUSH1 0x0 KECCAK256 ADD DUP1 SLOAD PUSH2 0x987 SWAP1 PUSH2 0x13B2 JUMP JUMPDEST DUP1 PUSH1 0x1F ADD PUSH1 0x20 DUP1 SWAP2 DIV MUL PUSH1 0x20 ADD PUSH1 0x40 MLOAD SWAP1 DUP2 ADD PUSH1 0x40 MSTORE DUP1 SWAP3 SWAP2 SWAP1 DUP2 DUP2 MSTORE PUSH1 0x20 ADD DUP3 DUP1 SLOAD PUSH2 0x9B3 SWAP1 PUSH2 0x13B2 JUMP JUMPDEST DUP1 ISZERO PUSH2 0xA00 JUMPI DUP1 PUSH1 0x1F LT PUSH2 0x9D5 JUMPI PUSH2 0x100 DUP1 DUP4 SLOAD DIV MUL DUP4 MSTORE SWAP2 PUSH1 0x20 ADD SWAP2 PUSH2 0xA00 JUMP JUMPDEST DUP3 ADD SWAP2 SWAP1 PUSH1 0x0 MSTORE PUSH1 0x20 PUSH1 0x0 KECCAK256 SWAP1 JUMPDEST DUP2 SLOAD DUP2 MSTORE SWAP1 PUSH1 0x1 ADD SWAP1 PUSH1 0x20 ADD DUP1 DUP4 GT PUSH2 0x9E3 JUMPI DUP3 SWAP1 SUB PUSH1 0x1F AND DUP3 ADD SWAP2 JUMPDEST POP POP POP POP POP DUP2 MSTORE PUSH1 0x20 ADD SWAP1 PUSH1 0x1 ADD SWAP1 PUSH2 0x968 JUMP JUMPDEST POP POP POP POP SWAP1 POP SWAP8 POP SWAP8 POP SWAP8 POP SWAP8 POP SWAP8 POP SWAP8 POP SWAP8 POP POP SWAP2 SWAP4 SWAP6 SWAP8 SWAP1 SWAP3 SWAP5 SWAP7 POP JUMP JUMPDEST PUSH1 0x1 PUSH1 0x0 SWAP1 SLOAD SWAP1 PUSH2 0x100 EXP SWAP1 DIV PUSH20 0xFFFFFFFFFFFFFFFFFFFFFFFFFFFFFFFFFFFFFFFF AND DUP2 JUMP JUMPDEST PUSH1 0x0 PUSH1 0x2 PUSH1 0x0 SWAP1 SLOAD SWAP1 PUSH2 0x100 EXP SWAP1 DIV PUSH20 0xFFFFFFFFFFFFFFFFFFFFFFFFFFFFFFFFFFFFFFFF AND SWAP1 POP SWAP1 JUMP JUMPDEST PUSH1 0x0 DUP1 SLOAD SWAP1 PUSH2 0x100 EXP SWAP1 DIV PUSH20 0xFFFFFFFFFFFFFFFFFFFFFFFFFFFFFFFFFFFFFFFF AND PUSH20 0xFFFFFFFFFFFFFFFFFFFFFFFFFFFFFFFFFFFFFFFF AND CALLER PUSH20 0xFFFFFFFFFFFFFFFFFFFFFFFFFFFFFFFFFFFFFFFF AND EQ PUSH2 0xB12 JUMPI PUSH1 0x40 MLOAD PUSH32 0x8C379A000000000000000000000000000000000000000000000000000000000 DUP2 MSTORE PUSH1 0x4 ADD PUSH2 0xB09 SWAP1 PUSH2 0x183D JUMP JUMPDEST PUSH1 0x40 MLOAD DUP1 SWAP2 SUB SWAP1 REVERT JUMPDEST PUSH1 0x0 PUSH1 0x4 PUSH1 0x0 PUSH1 0x3 SLOAD DUP2 MSTORE PUSH1 0x20 ADD SWAP1 DUP2 MSTORE PUSH1 0x20 ADD PUSH1 0x0 KECCAK256 SWAP1 POP PUSH1 0x3 SLOAD DUP2 PUSH1 0x0 ADD DUP2 SWAP1 SSTORE POP DUP4 DUP2 PUSH1 0x1 ADD SWAP1 DUP2 PUSH2 0xB47 SWAP2 SWAP1 PUSH2 0x158F JUMP JUMPDEST POP DUP3 DUP2 PUSH1 0x2 ADD DUP2 SWAP1 SSTORE POP PUSH1 0x0 DUP1 SLOAD SWAP1 PUSH2 0x100 EXP SWAP1 DIV PUSH20 0xFFFFFFFFFFFFFFFFFFFFFFFFFFFFFFFFFFFFFFFF AND DUP2 PUSH1 0x3 ADD PUSH1 0x0 PUSH2 0x100 EXP DUP2 SLOAD DUP2 PUSH20 0xFFFFFFFFFFFFFFFFFFFFFFFFFFFFFFFFFFFFFFFF MUL NOT AND SWAP1 DUP4 PUSH20 0xFFFFFFFFFFFFFFFFFFFFFFFFFFFFFFFFFFFFFFFF AND MUL OR SWAP1 SSTORE POP DUP2 DUP2 PUSH1 0x4 ADD SWAP1 DUP2 PUSH2 0xBC5 SWAP2 SWAP1 PUSH2 0x158F JUMP JUMPDEST POP TIMESTAMP DUP2 PUSH1 0x5 ADD DUP2 SWAP1 SSTORE POP DUP1 PUSH1 0x6 ADD DUP1 PUSH1 0x1 DUP2 SLOAD ADD DUP1 DUP3 SSTORE DUP1 SWAP2 POP POP PUSH1 0x1 SWAP1 SUB SWAP1 PUSH1 0x0 MSTORE PUSH1 0x20 PUSH1 0x0 KECCAK256 ADD PUSH1 0x0 PUSH1 0x40 MLOAD DUP1 PUSH1 0x40 ADD PUSH1 0x40 MSTORE DUP1 PUSH1 0x18 DUP2 MSTORE PUSH1 0x20 ADD PUSH32 0x50726F6475636564206279206D616E7566616374757265720000000000000000 DUP2 MSTORE POP SWAP1 SWAP2 SWAP1 SWAP2 POP SWAP1 DUP2 PUSH2 0xC37 SWAP2 SWAP1 PUSH2 0x158F JUMP JUMPDEST POP PUSH32 0x2E87DF3C8F53FB06266ED52023929F5FAB9F24130224EF6538B665D9CAC82530 PUSH1 0x3 SLOAD DUP6 DUP6 PUSH1 0x0 DUP1 SLOAD SWAP1 PUSH2 0x100 EXP SWAP1 DIV PUSH20 0xFFFFFFFFFFFFFFFFFFFFFFFFFFFFFFFFFFFFFFFF AND PUSH1 0x40 MLOAD PUSH2 0xC8F SWAP5 SWAP4 SWAP3 SWAP2 SWAP1 PUSH2 0x185D JUMP JUMPDEST PUSH1 0x40 MLOAD DUP1 SWAP2 SUB SWAP1 LOG1 PUSH1 0x3 PUSH1 0x0 DUP2 SLOAD DUP1 SWAP3 SWAP2 SWAP1 PUSH2 0xCAA SWAP1 PUSH2 0x18A9 JUMP JUMPDEST SWAP2 SWAP1 POP SSTORE POP POP POP POP POP JUMP JUMPDEST PUSH1 0x0 PUSH20 0xFFFFFFFFFFFFFFFFFFFFFFFFFFFFFFFFFFFFFFFF DUP3 AND SWAP1 POP SWAP2 SWAP1 POP JUMP JUMPDEST PUSH1 0x0 PUSH2 0xCE0 DUP3 PUSH2 0xCB5 JUMP JUMPDEST SWAP1 POP SWAP2 SWAP1 POP JUMP JUMPDEST PUSH2 0xCF0 DUP2 PUSH2 0xCD5 JUMP JUMPDEST DUP3 MSTORE POP POP JUMP JUMPDEST PUSH1 0x0 PUSH1 0x20 DUP3 ADD SWAP1 POP PUSH2 0xD0B PUSH1 0x0 DUP4 ADD DUP5 PUSH2 0xCE7 JUMP JUMPDEST SWAP3 SWAP2 POP POP JUMP JUMPDEST PUSH1 0x0 PUSH1 0x40 MLOAD SWAP1 POP SWAP1 JUMP JUMPDEST PUSH1 0x0 DUP1 REVERT JUMPDEST PUSH1 0x0 DUP1 REVERT JUMPDEST PUSH1 0x0 DUP2 SWAP1 POP SWAP2 SWAP1 POP JUMP JUMPDEST PUSH2 0xD38 DUP2 PUSH2 0xD25 JUMP JUMPDEST DUP2 EQ PUSH2 0xD43 JUMPI PUSH1 0x0 DUP1 REVERT JUMPDEST POP JUMP JUMPDEST PUSH1 0x0 DUP2 CALLDATALOAD SWAP1 POP PUSH2 0xD55 DUP2 PUSH2 0xD2F JUMP JUMPDEST SWAP3 SWAP2 POP POP JUMP JUMPDEST PUSH2 0xD64 DUP2 PUSH2 0xCD5 JUMP JUMPDEST DUP2 EQ PUSH2 0xD6F JUMPI PUSH1 0x0 DUP1 REVERT JUMPDEST POP JUMP JUMPDEST PUSH1 0x0 DUP2 CALLDATALOAD SWAP1 POP PUSH2 0xD81 DUP2 PUSH2 0xD5B JUMP JUMPDEST SWAP3 SWAP2 POP POP JUMP JUMPDEST PUSH1 0x0 DUP1 REVERT JUMPDEST PUSH1 0x0 DUP1 REVERT JUMPDEST PUSH1 0x0 PUSH1 0x1F NOT PUSH1 0x1F DUP4 ADD AND SWAP1 POP SWAP2 SWAP1 POP JUMP JUMPDEST PUSH32 0x4E487B7100000000000000000000000000000000000000000000000000000000 PUSH1 0x0 MSTORE PUSH1 0x41 PUSH1 0x4 MSTORE PUSH1 0x24 PUSH1 0x0 REVERT JUMPDEST PUSH2 0xDDA DUP3 PUSH2 0xD91 JUMP JUMPDEST DUP2 ADD DUP2 DUP2 LT PUSH8 0xFFFFFFFFFFFFFFFF DUP3 GT OR ISZERO PUSH2 0xDF9 JUMPI PUSH2 0xDF8 PUSH2 0xDA2 JUMP JUMPDEST JUMPDEST DUP1 PUSH1 0x40 MSTORE POP POP POP JUMP JUMPDEST PUSH1 0x0 PUSH2 0xE0C PUSH2 0xD11 JUMP JUMPDEST SWAP1 POP PUSH2 0xE18 DUP3 DUP3 PUSH2 0xDD1 JUMP JUMPDEST SWAP2 SWAP1 POP JUMP JUMPDEST PUSH1 0x0 PUSH8 0xFFFFFFFFFFFFFFFF DUP3 GT ISZERO PUSH2 0xE38 JUMPI PUSH2 0xE37 PUSH2 0xDA2 JUMP JUMPDEST JUMPDEST PUSH2 0xE41 DUP3 PUSH2 0xD91 JUMP JUMPDEST SWAP1 POP PUSH1 0x20 DUP2 ADD SWAP1 POP SWAP2 SWAP1 POP JUMP JUMPDEST DUP3 DUP2 DUP4 CALLDATACOPY PUSH1 0x0 DUP4 DUP4 ADD MSTORE POP POP POP JUMP JUMPDEST PUSH1 0x0 PUSH2 0xE70 PUSH2 0xE6B DUP5 PUSH2 0xE1D JUMP JUMPDEST PUSH2 0xE02 JUMP JUMPDEST SWAP1 POP DUP3 DUP2 MSTORE PUSH1 0x20 DUP2 ADD DUP5 DUP5 DUP5 ADD GT ISZERO PUSH2 0xE8C JUMPI PUSH2 0xE8B PUSH2 0xD8C JUMP JUMPDEST JUMPDEST PUSH2 0xE97 DUP5 DUP3 DUP6 PUSH2 0xE4E JUMP JUMPDEST POP SWAP4 SWAP3 POP POP POP JUMP JUMPDEST PUSH1 0x0 DUP3 PUSH1 0x1F DUP4 ADD SLT PUSH2 0xEB4 JUMPI PUSH2 0xEB3 PUSH2 0xD87 JUMP JUMPDEST JUMPDEST DUP2 CALLDATALOAD PUSH2 0xEC4 DUP5 DUP3 PUSH1 0x20 DUP7 ADD PUSH2 0xE5D JUMP JUMPDEST SWAP2 POP POP SWAP3 SWAP2 POP POP JUMP JUMPDEST PUSH1 0x0 DUP1 PUSH1 0x0 PUSH1 0x60 DUP5 DUP7 SUB SLT ISZERO PUSH2 0xEE6 JUMPI PUSH2 0xEE5 PUSH2 0xD1B JUMP JUMPDEST JUMPDEST PUSH1 0x0 PUSH2 0xEF4 DUP7 DUP3 DUP8 ADD PUSH2 0xD46 JUMP JUMPDEST SWAP4 POP POP PUSH1 0x20 PUSH2 0xF05 DUP7 DUP3 DUP8 ADD PUSH2 0xD72 JUMP JUMPDEST SWAP3 POP POP PUSH1 0x40 DUP5 ADD CALLDATALOAD PUSH8 0xFFFFFFFFFFFFFFFF DUP2 GT ISZERO PUSH2 0xF26 JUMPI PUSH2 0xF25 PUSH2 0xD20 JUMP JUMPDEST JUMPDEST PUSH2 0xF32 DUP7 DUP3 DUP8 ADD PUSH2 0xE9F JUMP JUMPDEST SWAP2 POP POP SWAP3 POP SWAP3 POP SWAP3 JUMP JUMPDEST PUSH2 0xF45 DUP2 PUSH2 0xD25 JUMP JUMPDEST DUP3 MSTORE POP POP JUMP JUMPDEST PUSH1 0x0 PUSH1 0x20 DUP3 ADD SWAP1 POP PUSH2 0xF60 PUSH1 0x0 DUP4 ADD DUP5 PUSH2 0xF3C JUMP JUMPDEST SWAP3 SWAP2 POP POP JUMP JUMPDEST PUSH1 0x0 PUSH1 0x20 DUP3 DUP5 SUB SLT ISZERO PUSH2 0xF7C JUMPI PUSH2 0xF7B PUSH2 0xD1B JUMP JUMPDEST JUMPDEST PUSH1 0x0 PUSH2 0xF8A DUP5 DUP3 DUP6 ADD PUSH2 0xD46 JUMP JUMPDEST SWAP2 POP POP SWAP3 SWAP2 POP POP JUMP JUMPDEST PUSH1 0x0 DUP2 MLOAD SWAP1 POP SWAP2 SWAP1 POP JUMP JUMPDEST PUSH1 0x0 DUP3 DUP3 MSTORE PUSH1 0x20 DUP3 ADD SWAP1 POP SWAP3 SWAP2 POP POP JUMP JUMPDEST PUSH1 0x0 DUP2 SWAP1 POP PUSH1 0x20 DUP3 ADD SWAP1 POP SWAP2 SWAP1 POP JUMP JUMPDEST PUSH1 0x0 DUP2 MLOAD SWAP1 POP SWAP2 SWAP1 POP JUMP JUMPDEST PUSH1 0x0 DUP3 DUP3 MSTORE PUSH1 0x20 DUP3 ADD SWAP1 POP SWAP3 SWAP2 POP POP JUMP JUMPDEST PUSH1 0x0 JUMPDEST DUP4 DUP2 LT ISZERO PUSH2 0xFF9 JUMPI DUP1 DUP3 ADD MLOAD DUP2 DUP5 ADD MSTORE PUSH1 0x20 DUP2 ADD SWAP1 POP PUSH2 0xFDE JUMP JUMPDEST PUSH1 0x0 DUP5 DUP5 ADD MSTORE POP POP POP POP JUMP JUMPDEST PUSH1 0x0 PUSH2 0x1010 DUP3 PUSH2 0xFBF JUMP JUMPDEST PUSH2 0x101A DUP2 DUP6 PUSH2 0xFCA JUMP JUMPDEST SWAP4 POP PUSH2 0x102A DUP2 DUP6 PUSH1 0x20 DUP7 ADD PUSH2 0xFDB JUMP JUMPDEST PUSH2 0x1033 DUP2 PUSH2 0xD91 JUMP JUMPDEST DUP5 ADD SWAP2 POP POP SWAP3 SWAP2 POP POP JUMP JUMPDEST PUSH1 0x0 PUSH2 0x104A DUP4 DUP4 PUSH2 0x1005 JUMP JUMPDEST SWAP1 POP SWAP3 SWAP2 POP POP JUMP JUMPDEST PUSH1 0x0 PUSH1 0x20 DUP3 ADD SWAP1 POP SWAP2 SWAP1 POP JUMP JUMPDEST PUSH1 0x0 PUSH2 0x106A DUP3 PUSH2 0xF93 JUMP JUMPDEST PUSH2 0x1074 DUP2 DUP6 PUSH2 0xF9E JUMP JUMPDEST SWAP4 POP DUP4 PUSH1 0x20 DUP3 MUL DUP6 ADD PUSH2 0x1086 DUP6 PUSH2 0xFAF JUMP JUMPDEST DUP1 PUSH1 0x0 JUMPDEST DUP6 DUP2 LT ISZERO PUSH2 0x10C2 JUMPI DUP5 DUP5 SUB DUP10 MSTORE DUP2 MLOAD PUSH2 0x10A3 DUP6 DUP3 PUSH2 0x103E JUMP JUMPDEST SWAP5 POP PUSH2 0x10AE DUP4 PUSH2 0x1052 JUMP JUMPDEST SWAP3 POP PUSH1 0x20 DUP11 ADD SWAP10 POP POP PUSH1 0x1 DUP2 ADD SWAP1 POP PUSH2 0x108A JUMP JUMPDEST POP DUP3 SWAP8 POP DUP8 SWAP6 POP POP POP POP POP POP SWAP3 SWAP2 POP POP JUMP JUMPDEST PUSH1 0x0 PUSH1 0x20 DUP3 ADD SWAP1 POP DUP2 DUP2 SUB PUSH1 0x0 DUP4 ADD MSTORE PUSH2 0x10EE DUP2 DUP5 PUSH2 0x105F JUMP JUMPDEST SWAP1 POP SWAP3 SWAP2 POP POP JUMP JUMPDEST PUSH1 0x0 DUP1 PUSH1 0x40 DUP4 DUP6 SUB SLT ISZERO PUSH2 0x110D JUMPI PUSH2 0x110C PUSH2 0xD1B JUMP JUMPDEST JUMPDEST PUSH1 0x0 PUSH2 0x111B DUP6 DUP3 DUP7 ADD PUSH2 0xD46 JUMP JUMPDEST SWAP3 POP POP PUSH1 0x20 DUP4 ADD CALLDATALOAD PUSH8 0xFFFFFFFFFFFFFFFF DUP2 GT ISZERO PUSH2 0x113C JUMPI PUSH2 0x113B PUSH2 0xD20 JUMP JUMPDEST JUMPDEST PUSH2 0x1148 DUP6 DUP3 DUP7 ADD PUSH2 0xE9F JUMP JUMPDEST SWAP2 POP POP SWAP3 POP SWAP3 SWAP1 POP JUMP JUMPDEST PUSH1 0x0 DUP3 DUP3 MSTORE PUSH1 0x20 DUP3 ADD SWAP1 POP SWAP3 SWAP2 POP POP JUMP JUMPDEST PUSH1 0x0 PUSH2 0x116E DUP3 PUSH2 0xFBF JUMP JUMPDEST PUSH2 0x1178 DUP2 DUP6 PUSH2 0x1152 JUMP JUMPDEST SWAP4 POP PUSH2 0x1188 DUP2 DUP6 PUSH1 0x20 DUP7 ADD PUSH2 0xFDB JUMP JUMPDEST PUSH2 0x1191 DUP2 PUSH2 0xD91 JUMP JUMPDEST DUP5 ADD SWAP2 POP POP SWAP3 SWAP2 POP POP JUMP JUMPDEST PUSH1 0x0 PUSH1 0xE0 DUP3 ADD SWAP1 POP PUSH2 0x11B1 PUSH1 0x0 DUP4 ADD DUP11 PUSH2 0xF3C JUMP JUMPDEST DUP2 DUP2 SUB PUSH1 0x20 DUP4 ADD MSTORE PUSH2 0x11C3 DUP2 DUP10 PUSH2 0x1163 JUMP JUMPDEST SWAP1 POP PUSH2 0x11D2 PUSH1 0x40 DUP4 ADD DUP9 PUSH2 0xF3C JUMP JUMPDEST PUSH2 0x11DF PUSH1 0x60 DUP4 ADD DUP8 PUSH2 0xCE7 JUMP JUMPDEST DUP2 DUP2 SUB PUSH1 0x80 DUP4 ADD MSTORE PUSH2 0x11F1 DUP2 DUP7 PUSH2 0x1163 JUMP JUMPDEST SWAP1 POP PUSH2 0x1200 PUSH1 0xA0 DUP4 ADD DUP6 PUSH2 0xF3C JUMP JUMPDEST DUP2 DUP2 SUB PUSH1 0xC0 DUP4 ADD MSTORE PUSH2 0x1212 DUP2 DUP5 PUSH2 0x105F JUMP JUMPDEST SWAP1 POP SWAP9 SWAP8 POP POP POP POP POP POP POP POP JUMP JUMPDEST PUSH1 0x0 DUP1 PUSH1 0x0 PUSH1 0x60 DUP5 DUP7 SUB SLT ISZERO PUSH2 0x1239 JUMPI PUSH2 0x1238 PUSH2 0xD1B JUMP JUMPDEST JUMPDEST PUSH1 0x0 DUP5 ADD CALLDATALOAD PUSH8 0xFFFFFFFFFFFFFFFF DUP2 GT ISZERO PUSH2 0x1257 JUMPI PUSH2 0x1256 PUSH2 0xD20 JUMP JUMPDEST JUMPDEST PUSH2 0x1263 DUP7 DUP3 DUP8 ADD PUSH2 0xE9F JUMP JUMPDEST SWAP4 POP POP PUSH1 0x20 PUSH2 0x1274 DUP7 DUP3 DUP8 ADD PUSH2 0xD46 JUMP JUMPDEST SWAP3 POP POP PUSH1 0x40 DUP5 ADD CALLDATALOAD PUSH8 0xFFFFFFFFFFFFFFFF DUP2 GT ISZERO PUSH2 0x1295 JUMPI PUSH2 0x1294 PUSH2 0xD20 JUMP JUMPDEST JUMPDEST PUSH2 0x12A1 DUP7 DUP3 DUP8 ADD PUSH2 0xE9F JUMP JUMPDEST SWAP2 POP POP SWAP3 POP SWAP3 POP SWAP3 JUMP JUMPDEST PUSH32 0x4F6E6C792063757272656E74206F776E65722063616E207472616E7366657200 PUSH1 0x0 DUP3 ADD MSTORE POP JUMP JUMPDEST PUSH1 0x0 PUSH2 0x12E1 PUSH1 0x1F DUP4 PUSH2 0x1152 JUMP JUMPDEST SWAP2 POP PUSH2 0x12EC DUP3 PUSH2 0x12AB JUMP JUMPDEST PUSH1 0x20 DUP3 ADD SWAP1 POP SWAP2 SWAP1 POP JUMP JUMPDEST PUSH1 0x0 PUSH1 0x20 DUP3 ADD SWAP1 POP DUP2 DUP2 SUB PUSH1 0x0 DUP4 ADD MSTORE PUSH2 0x1310 DUP2 PUSH2 0x12D4 JUMP JUMPDEST SWAP1 POP SWAP2 SWAP1 POP JUMP JUMPDEST PUSH32 0x496E76616C696420726563697069656E74000000000000000000000000000000 PUSH1 0x0 DUP3 ADD MSTORE POP JUMP JUMPDEST PUSH1 0x0 PUSH2 0x134D PUSH1 0x11 DUP4 PUSH2 0x1152 JUMP JUMPDEST SWAP2 POP PUSH2 0x1358 DUP3 PUSH2 0x1317 JUMP JUMPDEST PUSH1 0x20 DUP3 ADD SWAP1 POP SWAP2 SWAP1 POP JUMP JUMPDEST PUSH1 0x0 PUSH1 0x20 DUP3 ADD SWAP1 POP DUP2 DUP2 SUB PUSH1 0x0 DUP4 ADD MSTORE PUSH2 0x137C DUP2 PUSH2 0x1340 JUMP JUMPDEST SWAP1 POP SWAP2 SWAP1 POP JUMP JUMPDEST PUSH32 0x4E487B7100000000000000000000000000000000000000000000000000000000 PUSH1 0x0 MSTORE PUSH1 0x22 PUSH1 0x4 MSTORE PUSH1 0x24 PUSH1 0x0 REVERT JUMPDEST PUSH1 0x0 PUSH1 0x2 DUP3 DIV SWAP1 POP PUSH1 0x1 DUP3 AND DUP1 PUSH2 0x13CA JUMPI PUSH1 0x7F DUP3 AND SWAP2 POP JUMPDEST PUSH1 0x20 DUP3 LT DUP2 SUB PUSH2 0x13DD JUMPI PUSH2 0x13DC PUSH2 0x1383 JUMP JUMPDEST JUMPDEST POP SWAP2 SWAP1 POP JUMP JUMPDEST PUSH1 0x0 DUP2 SWAP1 POP DUP2 PUSH1 0x0 MSTORE PUSH1 0x20 PUSH1 0x0 KECCAK256 SWAP1 POP SWAP2 SWAP1 POP JUMP JUMPDEST PUSH1 0x0 PUSH1 0x20 PUSH1 0x1F DUP4 ADD DIV SWAP1 POP SWAP2 SWAP1 POP JUMP JUMPDEST PUSH1 0x0 DUP3 DUP3 SHL SWAP1 POP SWAP3 SWAP2 POP POP JUMP JUMPDEST PUSH1 0x0 PUSH1 0x8 DUP4 MUL PUSH2 0x1445 PUSH32 0xFFFFFFFFFFFFFFFFFFFFFFFFFFFFFFFFFFFFFFFFFFFFFFFFFFFFFFFFFFFFFFFF DUP3 PUSH2 0x1408 JUMP JUMPDEST PUSH2 0x144F DUP7 DUP4 PUSH2 0x1408 JUMP JUMPDEST SWAP6 POP DUP1 NOT DUP5 AND SWAP4 POP DUP1 DUP7 AND DUP5 OR SWAP3 POP POP POP SWAP4 SWAP3 POP POP POP JUMP JUMPDEST PUSH1 0x0 DUP2 SWAP1 POP SWAP2 SWAP1 POP JUMP JUMPDEST PUSH1 0x0 PUSH2 0x148C PUSH2 0x1487 PUSH2 0x1482 DUP5 PUSH2 0xD25 JUMP JUMPDEST PUSH2 0x1467 JUMP JUMPDEST PUSH2 0xD25 JUMP JUMPDEST SWAP1 POP SWAP2 SWAP1 POP JUMP JUMPDEST PUSH1 0x0 DUP2 SWAP1 POP SWAP2 SWAP1 POP JUMP JUMPDEST PUSH2 0x14A6 DUP4 PUSH2 0x1471 JUMP JUMPDEST PUSH2 0x14BA PUSH2 0x14B2 DUP3 PUSH2 0x1493 JUMP JUMPDEST DUP5 DUP5 SLOAD PUSH2 0x1415 JUMP JUMPDEST DUP3 SSTORE POP POP POP POP JUMP JUMPDEST PUSH1 0x0 SWAP1 JUMP JUMPDEST PUSH2 0x14CF PUSH2 0x14C2 JUMP JUMPDEST PUSH2 0x14DA DUP2 DUP5 DUP5 PUSH2 0x149D JUMP JUMPDEST POP POP POP JUMP JUMPDEST JUMPDEST DUP2 DUP2 LT ISZERO PUSH2 0x14FE JUMPI PUSH2 0x14F3 PUSH1 0x0 DUP3 PUSH2 0x14C7 JUMP JUMPDEST PUSH1 0x1 DUP2 ADD SWAP1 POP PUSH2 0x14E0 JUMP JUMPDEST POP POP JUMP JUMPDEST PUSH1 0x1F DUP3 GT ISZERO PUSH2 0x1543 JUMPI PUSH2 0x1514 DUP2 PUSH2 0x13E3 JUMP JUMPDEST PUSH2 0x151D DUP5 PUSH2 0x13F8 JUMP JUMPDEST DUP2 ADD PUSH1 0x20 DUP6 LT ISZERO PUSH2 0x152C JUMPI DUP2 SWAP1 POP JUMPDEST PUSH2 0x1540 PUSH2 0x1538 DUP6 PUSH2 0x13F8 JUMP JUMPDEST DUP4 ADD DUP3 PUSH2 0x14DF JUMP JUMPDEST POP POP JUMPDEST POP POP POP JUMP JUMPDEST PUSH1 0x0 DUP3 DUP3 SHR SWAP1 POP SWAP3 SWAP2 POP POP JUMP JUMPDEST PUSH1 0x0 PUSH2 0x1566 PUSH1 0x0 NOT DUP5 PUSH1 0x8 MUL PUSH2 0x1548 JUMP JUMPDEST NOT DUP1 DUP4 AND SWAP2 POP POP SWAP3 SWAP2 POP POP JUMP JUMPDEST PUSH1 0x0 PUSH2 0x157F DUP4 DUP4 PUSH2 0x1555 JUMP JUMPDEST SWAP2 POP DUP3 PUSH1 0x2 MUL DUP3 OR SWAP1 POP SWAP3 SWAP2 POP POP JUMP JUMPDEST PUSH2 0x1598 DUP3 PUSH2 0xFBF JUMP JUMPDEST PUSH8 0xFFFFFFFFFFFFFFFF DUP2 GT ISZERO PUSH2 0x15B1 JUMPI PUSH2 0x15B0 PUSH2 0xDA2 JUMP JUMPDEST JUMPDEST PUSH2 0x15BB DUP3 SLOAD PUSH2 0x13B2 JUMP JUMPDEST PUSH2 0x15C6 DUP3 DUP3 DUP6 PUSH2 0x1502 JUMP JUMPDEST PUSH1 0x0 PUSH1 0x20 SWAP1 POP PUSH1 0x1F DUP4 GT PUSH1 0x1 DUP2 EQ PUSH2 0x15F9 JUMPI PUSH1 0x0 DUP5 ISZERO PUSH2 0x15E7 JUMPI DUP3 DUP8 ADD MLOAD SWAP1 POP JUMPDEST PUSH2 0x15F1 DUP6 DUP3 PUSH2 0x1573 JUMP JUMPDEST DUP7 SSTORE POP PUSH2 0x1659 JUMP JUMPDEST PUSH1 0x1F NOT DUP5 AND PUSH2 0x1607 DUP7 PUSH2 0x13E3 JUMP JUMPDEST PUSH1 0x0 JUMPDEST DUP3 DUP2 LT ISZERO PUSH2 0x162F JUMPI DUP5 DUP10 ADD MLOAD DUP3 SSTORE PUSH1 0x1 DUP3 ADD SWAP2 POP PUSH1 0x20 DUP6 ADD SWAP5 POP PUSH1 0x20 DUP2 ADD SWAP1 POP PUSH2 0x160A JUMP JUMPDEST DUP7 DUP4 LT ISZERO PUSH2 0x164C JUMPI DUP5 DUP10 ADD MLOAD PUSH2 0x1648 PUSH1 0x1F DUP10 AND DUP3 PUSH2 0x1555 JUMP JUMPDEST DUP4 SSTORE POP JUMPDEST PUSH1 0x1 PUSH1 0x2 DUP9 MUL ADD DUP9 SSTORE POP POP POP JUMPDEST POP POP POP POP POP POP JUMP JUMPDEST PUSH1 0x0 PUSH1 0x60 DUP3 ADD SWAP1 POP PUSH2 0x1676 PUSH1 0x0 DUP4 ADD DUP7 PUSH2 0xF3C JUMP JUMPDEST PUSH2 0x1683 PUSH1 0x20 DUP4 ADD DUP6 PUSH2 0xCE7 JUMP JUMPDEST PUSH2 0x1690 PUSH1 0x40 DUP4 ADD DUP5 PUSH2 0xCE7 JUMP JUMPDEST SWAP5 SWAP4 POP POP POP POP JUMP JUMPDEST PUSH1 0x0 PUSH1 0x60 DUP3 ADD SWAP1 POP PUSH2 0x16AD PUSH1 0x0 DUP4 ADD DUP7 PUSH2 0xF3C JUMP JUMPDEST DUP2 DUP2 SUB PUSH1 0x20 DUP4 ADD MSTORE PUSH2 0x16BF DUP2 DUP6 PUSH2 0x1163 JUMP JUMPDEST SWAP1 POP PUSH2 0x16CE PUSH1 0x40 DUP4 ADD DUP5 PUSH2 0xCE7 JUMP JUMPDEST SWAP5 SWAP4 POP POP POP POP JUMP JUMPDEST PUSH32 0x4E487B7100000000000000000000000000000000000000000000000000000000 PUSH1 0x0 MSTORE PUSH1 0x11 PUSH1 0x4 MSTORE PUSH1 0x24 PUSH1 0x0 REVERT JUMPDEST PUSH1 0x0 PUSH2 0x1710 DUP3 PUSH2 0xD25 JUMP JUMPDEST SWAP2 POP PUSH2 0x171B DUP4 PUSH2 0xD25 JUMP JUMPDEST SWAP3 POP DUP3 DUP3 SUB SWAP1 POP DUP2 DUP2 GT ISZERO PUSH2 0x1733 JUMPI PUSH2 0x1732 PUSH2 0x16D6 JUMP JUMPDEST JUMPDEST SWAP3 SWAP2 POP POP JUMP JUMPDEST PUSH32 0x4F6E6C792072657461696C65722063616E207265636F72642072657461696C20 PUSH1 0x0 DUP3 ADD MSTORE PUSH32 0x6576656E74730000000000000000000000000000000000000000000000000000 PUSH1 0x20 DUP3 ADD MSTORE POP JUMP JUMPDEST PUSH1 0x0 PUSH2 0x1795 PUSH1 0x26 DUP4 PUSH2 0x1152 JUMP JUMPDEST SWAP2 POP PUSH2 0x17A0 DUP3 PUSH2 0x1739 JUMP JUMPDEST PUSH1 0x40 DUP3 ADD SWAP1 POP SWAP2 SWAP1 POP JUMP JUMPDEST PUSH1 0x0 PUSH1 0x20 DUP3 ADD SWAP1 POP DUP2 DUP2 SUB PUSH1 0x0 DUP4 ADD MSTORE PUSH2 0x17C4 DUP2 PUSH2 0x1788 JUMP JUMPDEST SWAP1 POP SWAP2 SWAP1 POP JUMP JUMPDEST PUSH32 0x4F6E6C79206D616E7566616374757265722063616E206372656174652070726F PUSH1 0x0 DUP3 ADD MSTORE PUSH32 0x6475637473000000000000000000000000000000000000000000000000000000 PUSH1 0x20 DUP3 ADD MSTORE POP JUMP JUMPDEST PUSH1 0x0 PUSH2 0x1827 PUSH1 0x25 DUP4 PUSH2 0x1152 JUMP JUMPDEST SWAP2 POP PUSH2 0x1832 DUP3 PUSH2 0x17CB JUMP JUMPDEST PUSH1 0x40 DUP3 ADD SWAP1 POP SWAP2 SWAP1 POP JUMP JUMPDEST PUSH1 0x0 PUSH1 0x20 DUP3 ADD SWAP1 POP DUP2 DUP2 SUB PUSH1 0x0 DUP4 ADD MSTORE PUSH2 0x1856 DUP2 PUSH2 0x181A JUMP JUMPDEST SWAP1 POP SWAP2 SWAP1 POP JUMP JUMPDEST PUSH1 0x0 PUSH1 0x80 DUP3 ADD SWAP1 POP PUSH2 0x1872 PUSH1 0x0 DUP4 ADD DUP8 PUSH2 0xF3C JUMP JUMPDEST DUP2 DUP2 SUB PUSH1 0x20 DUP4 ADD MSTORE PUSH2 0x1884 DUP2 DUP7 PUSH2 0x1163 JUMP JUMPDEST SWAP1 POP PUSH2 0x1893 PUSH1 0x40 DUP4 ADD DUP6 PUSH2 0xF3C JUMP JUMPDEST PUSH2 0x18A0 PUSH1 0x60 DUP4 ADD DUP5 PUSH2 0xCE7 JUMP JUMPDEST SWAP6 SWAP5 POP POP POP POP POP JUMP JUMPDEST PUSH1 0x0 PUSH2 0x18B4 DUP3 PUSH2 0xD25 JUMP JUMPDEST SWAP2 POP PUSH32 0xFFFFFFFFFFFFFFFFFFFFFFFFFFFFFFFFFFFFFFFFFFFFFFFFFFFFFFFFFFFFFFFF DUP3 SUB PUSH2 0x18E6 JUMPI PUSH2 0x18E5 PUSH2 0x16D6 JUMP JUMPDEST JUMPDEST PUSH1 0x1 DUP3 ADD SWAP1 POP SWAP2 SWAP1 POP JUMP INVALID LOG2 PUSH5 0x6970667358 0x22 SLT KECCAK256 0xD7 0xAF 0xD2 0xF7 0xBA BASEFEE RETURN CALLVALUE EQ DELEGATECALL SWAP10 0xCD COINBASE 0xAD 0xDA 0xE5 0xAE 0xC8 CALL PUSH10 0xC6AC138725186C431875 RETURNDATASIZE 0xC0 PUSH5 0x736F6C6343 STOP ADDMOD SHR STOP CALLER "},"methodIdentifiers":{"createProduct(string,uint256,string)":"ff38ec0f","distributor()":"bfe10928","getDistributor()":"5884965f","getManufacturer()":"04b0cdda","getProduct(uint256)":"b9db15b4","getProductCount()":"4a348da9","getProductHistory(uint256)":"57a096a1","getRetailer()":"f80d1ff0","manufacturer()":"74754282","nextProductId()":"4de91a63","recordRetailEvent(uint256,string)":"6a04dddb","retailer()":"4c1249fc","transferProduct(uint256,address,string)":"293bb2c1"}}}}}