{
  "_format": "hh-sol-artifact-1",
  "contractName": "SupplyChain",
  "sourceName": "contracts/SupplyChain.sol",
  "abi": [
    {
      "inputs": [
        {
          "internalType": "address",
          "name": "_distributor",
          "type": "address"
        },
        {
          "internalType": "address",
          "name": "_retailer",
          "type": "address"
        }
      ],
      "stateMutability": "nonpayable",
      "type": "constructor"
    },
    {
      "anonymous": false,
      "inputs": [
        {
          "indexed": false,
          "internalType": "uint256",
          "name": "id",
          "type": "uint256"
        },
        {
          "indexed": false,
          "internalType": "string",
          "name": "name",
          "type": "string"
        },
        {
          "indexed": false,
          "internalType": "uint256",
          "name": "quantity",
          "type": "uint256"
        },
        {
          "indexed": false,
          "internalType": "address",
          "name": "owner",
          "type": "address"
        }
      ],
      "name": "ProductCreated",
      "type": "event"
    },
    {
      "anonymous": false,
      "inputs": [
        {
          "indexed": false,
          "internalType": "uint256",
          "name": "id",
          "type": "uint256"
        },
        {
          "indexed": false,
          "internalType": "address",
          "name": "from",
          "type": "address"
        },
        {
          "indexed": false,
          "internalType": "address",
          "name": "to",
          "type": "address"
        }
      ],
      "name": "ProductTransferred",
      "type": "event"
    },
    {
      "anonymous": false,
      "inputs": [
        {
          "indexed": false,
          "internalType": "uint256",
          "name": "id",
          "type": "uint256"
        },
        {
          "indexed": false,
          "internalType": "string",
          "name": "action",
          "type": "string"
        },
        {
          "indexed": false,
          "internalType": "address",
          "name": "by",
          "type": "address"
        }
      ],
      "name": "ProductUpdated",
      "type": "event"
    },
    {
      "inputs": [
        {
          "internalType": "string",
          "name": "_name",
          "type": "string"
        },
        {
          "internalType": "uint256",
          "name": "_quantity",
          "type": "uint256"
        },
        {
          "internalType": "string",
          "name": "_batchNumber",
          "type": "string"
        }
      ],
      "name": "createProduct",
      "outputs": [],
      "stateMutability": "nonpayable",
      "type": "function"
    },
    {
      "inputs": [],
      "name": "distributor",
      "outputs": [
        {
          "internalType": "address",
          "name": "",
          "type": "address"
        }
      ],
      "stateMutability": "view",
      "type": "function"
    },
    {
      "inputs": [],
      "name": "getDistributor",
      "outputs": [
        {
          "internalType": "address",
          "name": "",
          "type": "address"
        }
      ],
      "stateMutability": "view",
      "type": "function"
    },
    {
      "inputs": [],
      "name": "getManufacturer",
      "outputs": [
        {
          "internalType": "address",
          "name": "",
          "type": "address"
        }
      ],
      "stateMutability": "view",
      "type": "function"
    },
    {
      "inputs": [
        {
          "internalType": "uint256",
          "name": "_productId",
          "type": "uint256"
        }
      ],
      "name": "getProduct",
      "outputs": [
        {
          "internalType": "uint256",
          "name": "id",
          "type": "uint256"
        },
        {
          "internalType": "string",
          "name": "name",
          "type": "string"
        },
        {
          "internalType": "uint256",
          "name": "quantity",
          "type": "uint256"
        },
        {
          "internalType": "address",
          "name": "currentOwner",
          "type": "address"
        },
        {
          "internalType": "string",
          "name": "batchNumber",
          "type": "string"
        },
        {
          "internalType": "uint256",
          "name": "productionDate",
          "type": "uint256"
        },
        {
          "internalType": "string[]",
          "name": "history",
          "type": "string[]"
        }
      ],
      "stateMutability": "view",
      "type": "function"
    },
    {
      "inputs": [],
      "name": "getProductCount",
      "outputs": [
        {
          "internalType": "uint256",
          "name": "",
          "type": "uint256"
        }
      ],
      "stateMutability": "view",
      "type": "function"
    },
    {
      "inputs": [
        {
          "internalType": "uint256",
          "name": "_productId",
          "type": "uint256"
        }
      ],
      "name": "getProductHistory",
      "outputs": [
        {
          "internalType": "string[]",
          "name": "",
          "type": "string[]"
        }
      ],
      "stateMutability": "view",
      "type": "function"
    },
    {
      "inputs": [],
      "name": "getRetailer",
      "outputs": [
        {
          "internalType": "address",
          "name": "",
          "type": "address"
        }
      ],
      "stateMutability": "view",
      "type": "function"
    },
    {
      "inputs": [],
      "name": "manufacturer",
      "outputs": [
        {
          "internalType": "address",
          "name": "",
          "type": "address"
        }
      ],
      "stateMutability": "view",
      "type": "function"
    },
    {
      "inputs": [],
      "name": "nextProductId",
      "outputs": [
        {
          "internalType": "uint256",
          "name": "",
          "type": "uint256"
        }
      ],
      "stateMutability": "view",
      "type": "function"
    },
    {
      "inputs": [
        {
          "internalType": "uint256",
          "name": "_productId",
          "type": "uint256"
        },
        {
          "internalType": "string",
          "name": "_event",
          "type": "string"
        }
      ],
      "name": "recordRetailEvent",
      "outputs": [],
      "stateMutability": "nonpayable",
      "type": "function"
    },
    {
      "inputs": [],
      "name": "retailer",
      "outputs": [
        {
          "internalType": "address",
          "name": "",
          "type": "address"
        }
      ],
      "stateMutability": "view",
      "type": "function"
    },
    {
      "inputs": [
        {
          "internalType": "uint256",
          "name": "_productId",
          "type": "uint256"
        },
        {
          "internalType": "address",
          "name": "_to",
          "type": "address"
        },
        {
          "internalType": "string",
          "name": "_action",
          "type": "string"
        }
      ],
      "name": "transferProduct",
      "outputs": [],
      "stateMutability": "nonpayable",
      "type": "function"
    }
  ],
  "bytecode": "0x6080604052600160035534801561001557600080fd5b50604051611ad9380380611ad983398181016040528101906100379190610163565b336000806101000a81548173ffffffffffffffffffffffffffffffffffffffff021916908373ffffffffffffffffffffffffffffffffffffffff16021790555081600160006101000a81548173ffffffffffffffffffffffffffffffffffffffff021916908373ffffffffffffffffffffffffffffffffffffffff16021790555080600260006101000a81548173ffffffffffffffffffffffffffffffffffffffff021916908373ffffffffffffffffffffffffffffffffffffffff16021790555050506101a3565b600080fd5b600073ffffffffffffffffffffffffffffffffffffffff82169050919050565b600061013082610105565b9050919050565b61014081610125565b811461014b57600080fd5b50565b60008151905061015d81610137565b92915050565b6000806040838503121561017a57610179610100565b5b60006101888582860161014e565b92505060206101998582860161014e565b9150509250929050565b611927806101b26000396000f3fe608060405234801561001057600080fd5b50600436106100cf5760003560e01c80635884965f1161008c578063b9db15b411610066578063b9db15b4146101f0578063bfe1092814610226578063f80d1ff014610244578063ff38ec0f14610262576100cf565b80635884965f146101985780636a04dddb146101b657806374754282146101d2576100cf565b806304b0cdda146100d4578063293bb2c1146100f25780634a348da91461010e5780634c1249fc1461012c5780634de91a631461014a57806357a096a114610168575b600080fd5b6100dc61027e565b6040516100e99190610cf6565b60405180910390f35b61010c60048036038101906101079190610ecd565b6102a7565b005b61011661052e565b6040516101239190610f4b565b60405180910390f35b610134610544565b6040516101419190610cf6565b60405180910390f35b61015261056a565b60405161015f9190610f4b565b60405180910390f35b610182600480360381019061017d9190610f66565b610570565b60405161018f91906110d4565b60405180910390f35b6101a061065f565b6040516101ad9190610cf6565b60405180910390f35b6101d060048036038101906101cb91906110f6565b610689565b005b6101da6107a7565b6040516101e79190610cf6565b60405180910390f35b61020a60048036038101906102059190610f66565b6107cb565b60405161021d979695949392919061119c565b60405180910390f35b61022e610a34565b60405161023b9190610cf6565b60405180910390f35b61024c610a5a565b6040516102599190610cf6565b60405180910390f35b61027c60048036038101906102779190611220565b610a84565b005b60008060009054906101000a900473ffffffffffffffffffffffffffffffffffffffff16905090565b60006004600085815260200190815260200160002090508060030160009054906101000a900473ffffffffffffffffffffffffffffffffffffffff1673ffffffffffffffffffffffffffffffffffffffff163373ffffffffffffffffffffffffffffffffffffffff1614610350576040517f08c379a0000000000000000000000000000000000000000000000000000000008152600401610347906112f7565b60405180910390fd5b600160009054906101000a900473ffffffffffffffffffffffffffffffffffffffff1673ffffffffffffffffffffffffffffffffffffffff168373ffffffffffffffffffffffffffffffffffffffff1614806103f95750600260009054906101000a900473ffffffffffffffffffffffffffffffffffffffff1673ffffffffffffffffffffffffffffffffffffffff168373ffffffffffffffffffffffffffffffffffffffff16145b610438576040517f08c379a000000000000000000000000000000000000000000000000000000000815260040161042f90611363565b60405180910390fd5b828160030160006101000a81548173ffffffffffffffffffffffffffffffffffffffff021916908373ffffffffffffffffffffffffffffffffffffffff16021790555080600601829080600181540180825580915050600190039060005260206000200160009091909190915090816104b1919061158f565b507fcef86d37ba3dc1d682967cde44d8050488734bf53166725b220b4d2e515e9e938433856040516104e593929190611661565b60405180910390a17f6599e0074698ba3478733fbb2dac5ef719075c18d140e6c6ad768d8f970b22c584833360405161052093929190611698565b60405180910390a150505050565b6000600160035461053f9190611705565b905090565b600260009054906101000a900473ffffffffffffffffffffffffffffffffffffffff1681565b60035481565b606060046000838152602001908152602001600020600601805480602002602001604051908101604052809291908181526020016000905b828210156106545783829060005260206000200180546105c7906113b2565b80601f01602080910402602001604051908101604052809291908181526020018280546105f3906113b2565b80156106405780601f1061061557610100808354040283529160200191610640565b820191906000526020600020905b81548152906001019060200180831161062357829003601f168201915b5050505050815260200190600101906105a8565b505050509050919050565b6000600160009054906101000a900473ffffffffffffffffffffffffffffffffffffffff16905090565b600260009054906101000a900473ffffffffffffffffffffffffffffffffffffffff1673ffffffffffffffffffffffffffffffffffffffff163373ffffffffffffffffffffffffffffffffffffffff1614610719576040517f08c379a0000000000000000000000000000000000000000000000000000000008152600401610710906117ab565b60405180910390fd5b60006004600084815260200190815260200160002090508060060182908060018154018082558091505060019003906000526020600020016000909190919091509081610766919061158f565b507f6599e0074698ba3478733fbb2dac5ef719075c18d140e6c6ad768d8f970b22c583833360405161079a93929190611698565b60405180910390a1505050565b60008054906101000a900473ffffffffffffffffffffffffffffffffffffffff1681565b600060606000806060600060606000600460008a8152602001908152602001600020905080600001548160010182600201548360030160009054906101000a900473ffffffffffffffffffffffffffffffffffffffff168460040185600501548660060185805461083b906113b2565b80601f0160208091040260200160405190810160405280929190818152602001828054610867906113b2565b80156108b45780601f10610889576101008083540402835291602001916108b4565b820191906000526020600020905b81548152906001019060200180831161089757829003601f168201915b505050505095508280546108c7906113b2565b80601f01602080910402602001604051908101604052809291908181526020018280546108f3906113b2565b80156109405780601f1061091557610100808354040283529160200191610940565b820191906000526020600020905b81548152906001019060200180831161092357829003601f168201915b5050505050925080805480602002602001604051908101604052809291908181526020016000905b82821015610a14578382906000526020600020018054610987906113b2565b80601f01602080910402602001604051908101604052809291908181526020018280546109b3906113b2565b8015610a005780601f106109d557610100808354040283529160200191610a00565b820191906000526020600020905b8154815290600101906020018083116109e357829003601f168201915b505050505081526020019060010190610968565b505050509050975097509750975097509750975050919395979092949650565b600160009054906101000a900473ffffffffffffffffffffffffffffffffffffffff1681565b6000600260009054906101000a900473ffffffffffffffffffffffffffffffffffffffff16905090565b60008054906101000a900473ffffffffffffffffffffffffffffffffffffffff1673ffffffffffffffffffffffffffffffffffffffff163373ffffffffffffffffffffffffffffffffffffffff1614610b12576040517f08c379a0000000000000000000000000000000000000000000000000000000008152600401610b099061183d565b60405180910390fd5b60006004600060035481526020019081526020016000209050600354816000018190555083816001019081610b47919061158f565b5082816002018190555060008054906101000a900473ffffffffffffffffffffffffffffffffffffffff168160030160006101000a81548173ffffffffffffffffffffffffffffffffffffffff021916908373ffffffffffffffffffffffffffffffffffffffff16021790555081816004019081610bc5919061158f565b504281600501819055508060060180600181540180825580915050600190039060005260206000200160006040518060400160405280601881526020017f50726f6475636564206279206d616e756661637475726572000000000000000081525090919091509081610c37919061158f565b507f2e87df3c8f53fb06266ed52023929f5fab9f24130224ef6538b665d9cac82530600354858560008054906101000a900473ffffffffffffffffffffffffffffffffffffffff16604051610c8f949392919061185d565b60405180910390a160036000815480929190610caa906118a9565b919050555050505050565b600073ffffffffffffffffffffffffffffffffffffffff82169050919050565b6000610ce082610cb5565b9050919050565b610cf081610cd5565b82525050565b6000602082019050610d0b6000830184610ce7565b92915050565b6000604051905090565b600080fd5b600080fd5b6000819050919050565b610d3881610d25565b8114610d4357600080fd5b50565b600081359050610d5581610d2f565b92915050565b610d6481610cd5565b8114610d6f57600080fd5b50565b600081359050610d8181610d5b565b92915050565b600080fd5b600080fd5b6000601f19601f8301169050919050565b7f4e487b7100000000000000000000000000000000000000000000000000000000600052604160045260246000fd5b610dda82610d91565b810181811067ffffffffffffffff82111715610df957610df8610da2565b5b80604052505050565b6000610e0c610d11565b9050610e188282610dd1565b919050565b600067ffffffffffffffff821115610e3857610e37610da2565b5b610e4182610d91565b9050602081019050919050565b82818337600083830152505050565b6000610e70610e6b84610e1d565b610e02565b905082815260208101848484011115610e8c57610e8b610d8c565b5b610e97848285610e4e565b509392505050565b600082601f830112610eb457610eb3610d87565b5b8135610ec4848260208601610e5d565b91505092915050565b600080600060608486031215610ee657610ee5610d1b565b5b6000610ef486828701610d46565b9350506020610f0586828701610d72565b925050604084013567ffffffffffffffff811115610f2657610f25610d20565b5b610f3286828701610e9f565b9150509250925092565b610f4581610d25565b82525050565b6000602082019050610f606000830184610f3c565b92915050565b600060208284031215610f7c57610f7b610d1b565b5b6000610f8a84828501610d46565b91505092915050565b600081519050919050565b600082825260208201905092915050565b6000819050602082019050919050565b600081519050919050565b600082825260208201905092915050565b60005b83811015610ff9578082015181840152602081019050610fde565b60008484015250505050565b600061101082610fbf565b61101a8185610fca565b935061102a818560208601610fdb565b61103381610d91565b840191505092915050565b600061104a8383611005565b905092915050565b6000602082019050919050565b600061106a82610f93565b6110748185610f9e565b93508360208202850161108685610faf565b8060005b858110156110c257848403895281516110a3858261103e565b94506110ae83611052565b925060208a0199505060018101905061108a565b50829750879550505050505092915050565b600060208201905081810360008301526110ee818461105f565b905092915050565b6000806040838503121561110d5761110c610d1b565b5b600061111b85828601610d46565b925050602083013567ffffffffffffffff81111561113c5761113b610d20565b5b61114885828601610e9f565b9150509250929050565b600082825260208201905092915050565b600061116e82610fbf565b6111788185611152565b9350611188818560208601610fdb565b61119181610d91565b840191505092915050565b600060e0820190506111b1600083018a610f3c565b81810360208301526111c38189611163565b90506111d26040830188610f3c565b6111df6060830187610ce7565b81810360808301526111f18186611163565b905061120060a0830185610f3c565b81810360c0830152611212818461105f565b905098975050505050505050565b60008060006060848603121561123957611238610d1b565b5b600084013567ffffffffffffffff81111561125757611256610d20565b5b61126386828701610e9f565b935050602061127486828701610d46565b925050604084013567ffffffffffffffff81111561129557611294610d20565b5b6112a186828701610e9f565b9150509250925092565b7f4f6e6c792063757272656e74206f776e65722063616e207472616e7366657200600082015250565b60006112e1601f83611152565b91506112ec826112ab565b602082019050919050565b60006020820190508181036000830152611310816112d4565b9050919050565b7f496e76616c696420726563697069656e74000000000000000000000000000000600082015250565b600061134d601183611152565b915061135882611317565b602082019050919050565b6000602082019050818103600083015261137c81611340565b9050919050565b7f4e487b7100000000000000000000000000000000000000000000000000000000600052602260045260246000fd5b600060028204905060018216806113ca57607f821691505b6020821081036113dd576113dc611383565b5b50919050565b60008190508160005260206000209050919050565b60006020601f8301049050919050565b600082821b905092915050565b6000600883026114457fffffffffffffffffffffffffffffffffffffffffffffffffffffffffffffffff82611408565b61144f8683611408565b95508019841693508086168417925050509392505050565b6000819050919050565b600061148c61148761148284610d25565b611467565b610d25565b9050919050565b6000819050919050565b6114a683611471565b6114ba6114b282611493565b848454611415565b825550505050565b600090565b6114cf6114c2565b6114da81848461149d565b505050565b5b818110156114fe576114f36000826114c7565b6001810190506114e0565b5050565b601f82111561154357611514816113e3565b61151d846113f8565b8101602085101561152c578190505b611540611538856113f8565b8301826114df565b50505b505050565b600082821c905092915050565b600061156660001984600802611548565b1980831691505092915050565b600061157f8383611555565b9150826002028217905092915050565b61159882610fbf565b67ffffffffffffffff8111156115b1576115b0610da2565b5b6115bb82546113b2565b6115c6828285611502565b600060209050601f8311600181146115f957600084156115e7578287015190505b6115f18582611573565b865550611659565b601f198416611607866113e3565b60005b8281101561162f5784890151825560018201915060208501945060208101905061160a565b8683101561164c5784890151611648601f891682611555565b8355505b6001600288020188555050505b505050505050565b60006060820190506116766000830186610f3c565b6116836020830185610ce7565b6116906040830184610ce7565b949350505050565b60006060820190506116ad6000830186610f3c565b81810360208301526116bf8185611163565b90506116ce6040830184610ce7565b949350505050565b7f4e487b7100000000000000000000000000000000000000000000000000000000600052601160045260246000fd5b600061171082610d25565b915061171b83610d25565b9250828203905081811115611733576117326116d6565b5b92915050565b7f4f6e6c792072657461696c65722063616e207265636f72642072657461696c2060008201527f6576656e74730000000000000000000000000000000000000000000000000000602082015250565b6000611795602683611152565b91506117a082611739565b604082019050919050565b600060208201905081810360008301526117c481611788565b9050919050565b7f4f6e6c79206d616e7566616374757265722063616e206372656174652070726f60008201527f6475637473000000000000000000000000000000000000000000000000000000602082015250565b6000611827602583611152565b9150611832826117cb565b604082019050919050565b600060208201905081810360008301526118568161181a565b9050919050565b60006080820190506118726000830187610f3c565b81810360208301526118848186611163565b90506118936040830185610f3c565b6118a06060830184610ce7565b95945050505050565b60006118b482610d25565b91507fffffffffffffffffffffffffffffffffffffffffffffffffffffffffffffffff82036118e6576118e56116d6565b5b60018201905091905056fea2646970667358221220d7afd2f7ba48f33414f499cd41addae5aec8f169c6ac138725186c4318753dc064736f6c634300081c0033",
  "linkReferences": {},
  "deployedLinkReferences": {}
}