{
  "_format": "hh-sol-artifact-1",
  "contractName": "SupplyChain",
  "sourceName": "contracts/supplychain.sol",
  "abi": [
    {
      "anonymous": false,
      "inputs": [
        {
          "indexed": true,
          "internalType": "string",
          "name": "batchId",
          "type": "string"
        },
        {
          "indexed": false,
          "internalType": "string",
          "name": "manufacturer",
          "type": "string"
        },
        {
          "indexed": false,
          "internalType": "string",
          "name": "location",
          "type": "string"
        }
      ],
      "name": "ProductCreated",
      "type": "event"
    },
    {
      "anonymous": false,
      "inputs": [
        {
          "indexed": true,
          "internalType": "string",
          "name": "batchId",
          "type": "string"
        },
        {
          "indexed": false,
          "internalType": "string",
          "name": "newStatus",
          "type": "string"
        },
        {
          "indexed": false,
          "internalType": "string",
          "name": "updatedBy",
          "type": "string"
        }
      ],
      "name": "ProductStatusUpdated",
      "type": "event"
    },
    {
      "inputs": [
        {
          "internalType": "string",
          "name": "_batchId",
          "type": "string"
        },
        {
          "internalType": "string",
          "name": "_manufacturer",
          "type": "string"
        },
        {
          "internalType": "string",
          "name": "_location",
          "type": "string"
        }
      ],
      "name": "createProductBatch",
      "outputs": [],
      "stateMutability": "nonpayable",
      "type": "function"
    },
    {
      "inputs": [
        {
          "internalType": "string",
          "name": "",
          "type": "string"
        }
      ],
      "name": "products",
      "outputs": [
        {
          "internalType": "string",
          "name": "batchId",
          "type": "string"
        },
        {
          "internalType": "string",
          "name": "manufacturer",
          "type": "string"
        },
        {
          "internalType": "string",
          "name": "location",
          "type": "string"
        },
        {
          "internalType": "uint256",
          "name": "timestamp",
          "type": "uint256"
        },
        {
          "internalType": "string",
          "name": "status",
          "type": "string"
        }
      ],
      "stateMutability": "view",
      "type": "function"
    },
    {
      "inputs": [
        {
          "internalType": "string",
          "name": "_batchId",
          "type": "string"
        },
        {
          "internalType": "string",
          "name": "_newStatus",
          "type": "string"
        }
      ],
      "name": "updateProductStatus",
      "outputs": [],
      "stateMutability": "nonpayable",
      "type": "function"
    }
  ],
  "bytecode": "0x6080604052348015600f57600080fd5b50610e6f8061001f6000396000f3fe608060405234801561001057600080fd5b50600436106100415760003560e01c80630186a42314610046578063059871471461007a578063feb331fc14610096575b600080fd5b610060600480360381019061005b9190610709565b6100b2565b6040516100719594939291906107ea565b60405180910390f35b610094600480360381019061008f9190610859565b61031e565b005b6100b060048036038101906100ab91906108d1565b61040d565b005b6000818051602081018201805184825260208301602085012081835280955050505050506000915090508060000180546100eb906109a7565b80601f0160208091040260200160405190810160405280929190818152602001828054610117906109a7565b80156101645780601f1061013957610100808354040283529160200191610164565b820191906000526020600020905b81548152906001019060200180831161014757829003601f168201915b505050505090806001018054610179906109a7565b80601f01602080910402602001604051908101604052809291908181526020018280546101a5906109a7565b80156101f25780601f106101c7576101008083540402835291602001916101f2565b820191906000526020600020905b8154815290600101906020018083116101d557829003601f168201915b505050505090806002018054610207906109a7565b80601f0160208091040260200160405190810160405280929190818152602001828054610233906109a7565b80156102805780601f1061025557610100808354040283529160200191610280565b820191906000526020600020905b81548152906001019060200180831161026357829003601f168201915b50505050509080600301549080600401805461029b906109a7565b80601f01602080910402602001604051908101604052809291908181526020018280546102c7906109a7565b80156103145780601f106102e957610100808354040283529160200191610314565b820191906000526020600020905b8154815290600101906020018083116102f757829003601f168201915b5050505050905085565b6000808360405161032f9190610a14565b9081526020016040518091039020600001805461034b906109a7565b90501161038d576040517f08c379a000000000000000000000000000000000000000000000000000000000815260040161038490610a77565b60405180910390fd5b8060008360405161039e9190610a14565b908152602001604051809103902060040190816103bb9190610c43565b50816040516103ca9190610a14565b60405180910390207fbe6fa389a7192dbe4ea5000e241949dadb764c6e832a602e7fbee84fc0b2fdb2826040516104019190610d61565b60405180910390a25050565b6000808460405161041e9190610a14565b9081526020016040518091039020600001805461043a906109a7565b90501461047c576040517f08c379a000000000000000000000000000000000000000000000000000000000815260040161047390610de2565b60405180910390fd5b6040518060a001604052808481526020018381526020018281526020014281526020016040518060400160405280600c81526020017f4d616e75666163747572656400000000000000000000000000000000000000008152508152506000846040516104e89190610a14565b9081526020016040518091039020600082015181600001908161050b9190610c43565b5060208201518160010190816105219190610c43565b5060408201518160020190816105379190610c43565b506060820151816003015560808201518160040190816105579190610c43565b50905050826040516105699190610a14565b60405180910390207fec17402e5e2c4eca0c5c2418fd6997441b9dc520a053df2942a0caa570f3924c83836040516105a2929190610e02565b60405180910390a2505050565b6000604051905090565b600080fd5b600080fd5b600080fd5b600080fd5b6000601f19601f8301169050919050565b7f4e487b7100000000000000000000000000000000000000000000000000000000600052604160045260246000fd5b610616826105cd565b810181811067ffffffffffffffff82111715610635576106346105de565b5b80604052505050565b60006106486105af565b9050610654828261060d565b919050565b600067ffffffffffffffff821115610674576106736105de565b5b61067d826105cd565b9050602081019050919050565b82818337600083830152505050565b60006106ac6106a784610659565b61063e565b9050828152602081018484840111156106c8576106c76105c8565b5b6106d384828561068a565b509392505050565b600082601f8301126106f0576106ef6105c3565b5b8135610700848260208601610699565b91505092915050565b60006020828403121561071f5761071e6105b9565b5b600082013567ffffffffffffffff81111561073d5761073c6105be565b5b610749848285016106db565b91505092915050565b600081519050919050565b600082825260208201905092915050565b60005b8381101561078c578082015181840152602081019050610771565b60008484015250505050565b60006107a382610752565b6107ad818561075d565b93506107bd81856020860161076e565b6107c6816105cd565b840191505092915050565b6000819050919050565b6107e4816107d1565b82525050565b600060a08201905081810360008301526108048188610798565b905081810360208301526108188187610798565b9050818103604083015261082c8186610798565b905061083b60608301856107db565b818103608083015261084d8184610798565b90509695505050505050565b600080604083850312156108705761086f6105b9565b5b600083013567ffffffffffffffff81111561088e5761088d6105be565b5b61089a858286016106db565b925050602083013567ffffffffffffffff8111156108bb576108ba6105be565b5b6108c7858286016106db565b9150509250929050565b6000806000606084860312156108ea576108e96105b9565b5b600084013567ffffffffffffffff811115610908576109076105be565b5b610914868287016106db565b935050602084013567ffffffffffffffff811115610935576109346105be565b5b610941868287016106db565b925050604084013567ffffffffffffffff811115610962576109616105be565b5b61096e868287016106db565b9150509250925092565b7f4e487b7100000000000000000000000000000000000000000000000000000000600052602260045260246000fd5b600060028204905060018216806109bf57607f821691505b6020821081036109d2576109d1610978565b5b50919050565b600081905092915050565b60006109ee82610752565b6109f881856109d8565b9350610a0881856020860161076e565b80840191505092915050565b6000610a2082846109e3565b915081905092915050565b7f50726f6475637420626174636820646f6573206e6f742065786973742e000000600082015250565b6000610a61601d8361075d565b9150610a6c82610a2b565b602082019050919050565b60006020820190508181036000830152610a9081610a54565b9050919050565b60008190508160005260206000209050919050565b60006020601f8301049050919050565b600082821b905092915050565b600060088302610af97fffffffffffffffffffffffffffffffffffffffffffffffffffffffffffffffff82610abc565b610b038683610abc565b95508019841693508086168417925050509392505050565b6000819050919050565b6000610b40610b3b610b36846107d1565b610b1b565b6107d1565b9050919050565b6000819050919050565b610b5a83610b25565b610b6e610b6682610b47565b848454610ac9565b825550505050565b600090565b610b83610b76565b610b8e818484610b51565b505050565b5b81811015610bb257610ba7600082610b7b565b600181019050610b94565b5050565b601f821115610bf757610bc881610a97565b610bd184610aac565b81016020851015610be0578190505b610bf4610bec85610aac565b830182610b93565b50505b505050565b600082821c905092915050565b6000610c1a60001984600802610bfc565b1980831691505092915050565b6000610c338383610c09565b9150826002028217905092915050565b610c4c82610752565b67ffffffffffffffff811115610c6557610c646105de565b5b610c6f82546109a7565b610c7a828285610bb6565b600060209050601f831160018114610cad5760008415610c9b578287015190505b610ca58582610c27565b865550610d0d565b601f198416610cbb86610a97565b60005b82811015610ce357848901518255600182019150602085019450602081019050610cbe565b86831015610d005784890151610cfc601f891682610c09565b8355505b6001600288020188555050505b505050505050565b7f536f6d6520526f6c650000000000000000000000000000000000000000000000600082015250565b6000610d4b60098361075d565b9150610d5682610d15565b602082019050919050565b60006040820190508181036000830152610d7b8184610798565b90508181036020830152610d8e81610d3e565b905092915050565b7f50726f6475637420626174636820616c7265616479206578697374732e000000600082015250565b6000610dcc601d8361075d565b9150610dd782610d96565b602082019050919050565b60006020820190508181036000830152610dfb81610dbf565b9050919050565b60006040820190508181036000830152610e1c8185610798565b90508181036020830152610e308184610798565b9050939250505056fea26469706673582212205d9e479aa51fec6bb3fbccdd3439497166f8d443550adebf890a192c8f468e0964736f6c634300081c0033",
  "linkReferences": {},
  "deployedLinkReferences": {}
}